S010000065766F675F6F6E652E73726563C2
S11300000C94FE010C9424020C9424020C942402FB
S11300100C9424020C9424020C9424020C942402C4
S11300200C9424020C9424020C9424020C942402B4
S11300300C9424020C9424020C9463090C9424025E
S11300400C9424020C9424020C9424020C94240294
S11300500C9424020C9424020C9424020C94240284
S11300600C9424020C9424020C9424020C94240274
S11300700C94C60E0C9424020C9424020C942402B6
S11300800C9424020C9424020C9424020C94240254
S11300900C9424020C9424020C9424020C94240244
S11300A00C9424020C9424020C9424020C94240234
S11300B00C9424020C9424020C9424020C94240224
S11300C00C9424020C9424020C9424020C94240214
S11300D00C9424020C9424020C9424020C94240204
S11300E00C9424020C9424020C946C0F0C9424029F
S11300F00C9424020C9424020C9424020C942402E4
S11301000C9424020C9424020C9424020C942402D3
S11301100C9424020C9424020C9424020C942602C1
S11301200C9444020C9462020C9480020C942402F9
S11301300C9424020C9424020C9424020C942402A3
S11301400C9424020C9424020C9424020C94240293
S11301500C9424020C9424020C9424020C94240283
S11301600C9424020C9424020C9424020C94240273
S11301700C9424020C9424020C9424020C94240263
S11301800C9424020C9424020C9424020C94240253
S11301900C9424020C9424020C9424020C94240243
S11301A00C9424020C9424020C9424020C94240233
S11301B00C9424020C9424020C9424020C94240223
S11301C00C9424020C9424020C9424020C94240213
S11301D00C9424020C9424020C9424020C94240203
S11301E00C9424020C9424020C9424020C942402F3
S11301F00C9424020C9424020C94240250048F04C2
S1130200A104170517051705170517056E047204D1
S1130210720479041705170517058304076342362A
S1130220B79BD8A71A39685618AEBAAB558C1D3C83
S1130230B7CC5763BD6DEDFD753EF6177231BF0047
S11302400000803F08000000BE922449123EABAA81
S1130250AA2ABECDCCCC4C3E00000080BEABAAAADC
S1130260AA3E00000000BF000000803F0000000024
S113027000084178D3BB4387D1133D190E3CC3BD5D
S11302804282AD2B3E68EC8276BED98FE1A93E4C0A
S113029080EFFFBE01C4FF7F3F00000000000C940C
S11302A050040C9417050C9472040C9483040C945D
S11302B079040C948F040C94A1040C946E046E6164
S11302C06E00696E66004E414E494E495459494E7E
S11302D046CDCCCC3D0AD7233C17B7D13877CC2BAD
S11302E0329595E6241FB14F0A000020410000C852
S11302F04200401C4620BCBE4CCA1B0E5AAEC59DD3
S11303007400407A10F35A00A0724E18090010A528
S1130310D4E80000E87648170000E40B540200001B
S1130320CA9A3B000000E1F50500008096980000A1
S11303300040420F000000A08601000000102700CA
S1130340000000E803000000006400000000000A50
S113035000000000000100000000002C76D888DCBA
S1130360674F0823DFC1DFAE59E1B1B796E5E3E497
S113037053C63AE651997696E8E6C28426EB898C10
S11303809B62ED407C6FFCEFBC9C9F40F2BAA56F72
S1130390A5F490055A2AF75C936B6CF9676DC11B41
S11303A0FCE0E40D47FEF520E6B500D0ED902E0309
S11303B000943577050080841E080000204E0A0052
S11303C00000C80C333333330F986E12831141EF9E
S11303D08D2114893BE65516CFFEE6DB18D1844BFC
S11303E0381BF77C1D901DA4BBE424203284725E6C
S11303F0228100C9F124ECA1E53D270011241FBE90
S1130400CFEFCDBFDFE3DEBF00E00CBF18BE19BEE7
S11304101ABE1BBE11E2A0E0B0E2EEEFF8E300E08A
S11304200BBF02C007900D92AC3BB107D9F71BBEBE
S113043022E2ACEBB1E201C01D92AC37B207E1F7A6
S11304400E945B100C947D1C0C9400001F920F9270
S11304500FB60F92112408B60F9218BE8F939F9374
S113046081E08093C72180911002909111028093C2
S1130470C2219093C3219F918F910F9008BE0F903A
S11304800FBE0F901F9018951F920F920FB60F92E8
S1130490112408B60F9218BE8F939F9381E0809326
S11304A0C62180911202909113028093C0219093EF
S11304B0C1219F918F910F9008BE0F900FBE0F9096
S11304C01F9018951F920F920FB60F92112408B621
S11304D00F9218BE8F939F9381E08093C5218091E2
S11304E01402909115028093BE219093BF219F9195
S11304F08F910F9008BE0F900FBE0F901F9018950C
S11305001F920F920FB60F92112408B60F9218BEC5
S11305108F939F9381E08093C421809116029091E0
S113052017028093BC219093BD219F918F910F90CE
S113053008BE0F900FBE0F901F901895613061F0A8
S113054028F0623079F0633099F008951092C72151
S113055080910002846011C01092C6218091000233
S113056088600BC01092C52180910002806105C093
S11305701092C42180910002806280930002089549
S1130580613059F028F0623069F0633081F00895E9
S11305908091C7218823E1F308958091C62188239F
S11305A0E1F308958091C5218823E1F308958091B2
S11305B0C4218823E1F308950F931F93CF938C01F3
S11305C0C62F0E949E026C2FC8010E94C002C13037
S11305D079F048F0C23089F0C330A1F4809116025A
S11305E09091170211C080911002909111020CC0D9
S11305F0809112029091130207C08091140290918D
S1130600150202C080E090E0CF911F910F910895F0
S113061021E0FC012183E0E0F2E0808181608083BD
S11306200895FC016587609304021482A1E0B2E09E
S11306308C918F7E8C9381E0828BA0E2B2E08C91CE
S11306408C7F81608C93168AA1E2B2E08C918778CA
S11306508C9342A3A2E2B2E08C918C7F482B4C9302
S1130660CF010C9408030F931F93609312224093BD
S1130670CC215093CD212093CA213093CB210093D8
S1130680C8211093C9211F910F91089580911222BE
S1130690813009F04DC06091172270911822809129
S11306A0192290911A2220910E2230910F2240910A
S11306B01022509111220E945D1120E030E44CE997
S11306C056E40E94291318169CF510921222809168
S11306D00020882319F08130B1F0089561EF8091F2
S11306E0CA219091CB210E94890F6DE08091CA218B
S11306F09091CB210E94890F60E08091CA21909152
S1130700CB210C94890F61EF8091C8219091C9216C
S11307100E94E30E6DE08091C8219091C9210E944E
S1130720E30E60E08091C8219091C9210C94E30EFE
S11307300895809100206AE372E2813031F0809163
S1130740CA219091CB210C94910F8091C821909152
S1130750C9210C94EB0E80910020813049F08091E6
S113076039228823E1F310923922809138220895A6
S1130770809137228823E1F3109237228091362228
S11307800895633A09F447C028F4603A91F0613A55
S113079051F153C0683A09F444C0693A09F447C0B6
S11307A0643A09F04AC084EB80933A226DE170E226
S11307B02DC080EB80933A22809112221F928F9356
S11307C089E090E29F938F931F928FE38F938BE343
S11307D092E29F938F930E94CB1B8DB79EB708968E
S11307E08DBF9EBF32C081EB80933A22809112224A
S11307F0811103C06AE170E209C080911222813044
S113080019F46DE070E202C060E170E28BE392E201
S11308100E947D1B1AC083EB80933A2263E170E24D
S1130820F5CF88EB80933A2265E270E2EFCF89EB53
S113083080933A226AE270E2E9CF80EE80933A2212
S11308408DE080933B2210923C220C9499038F926A
S11308509F92AF92BF92CF92DF92EF92FF920F934B
S11308601F93CF93DF93CDB7DEB76297CDBFDEBFC3
S11308707C018AE392E2898B9A8B80E1860F8093D4
S11308803A22862F90E0FC01E05CF109E031F105A9
S113089008F0CDC08827E250FF4F8F4F0C940D19FC
S11308A08091122281111EC081E0809312226AE19C
S11308B070E28BE392E20E947D1B8091172290915B
S11308C01822A0911922B0911A2280930E2290939B
S11308D00F22A0931022B0931122B1C08091122252
S11308E08823D1F06DE070E28BE392E20E947D1BDD
S11308F0A6C0809112228111F5CF84E08093122248
S11309000E94BE0A9EC080911222843059F7109230
S1130910122281E080931B226AE170E2E5CF80918C
S113092012228111DFCF82E0809312226AE170E209
S11309308BE392E20E947D1B0E9499030E94660D44
S113094080C08EECC82E81E2D82E0AE312E2C701E1
S11309500E94AB03F60181936F01F80181918F012D
S11309608D30A9F7BE016F5E7F4F8AE392E20E9449
S113097016196B017C01BE016F5E7F4F89899A89CC
S11309800E9416194B015C0149895A894A53524203
S113099060E070E08AE392E20E94761B20E030E09F
S11309A0A901C701B6010E94CA1187FD9BCF20E0AF
S11309B030E048EC52E4C701B6010E94291318162E
S11309C00CF490CF20E030E0A901C501B4010E94ED
S11309D0CA1187FD87CF20E030E048EC52E4C5011E
S11309E0B4010E94291318160CF47CCFA5019401BC
S11309F0C701B6010E945E1120E030E048EC52E4E9
S1130A000E94291318160CF46DCF809112228111C3
S1130A1069CF83E0809312226AE170E28BE392E271
S1130A200E947D1B0E9499030E94440C0AC080EE20
S1130A3080933A228DE080933B2210923C220E94C4
S1130A4099036296CDBFDEBFDF91CF911F910F91C5
S1130A50FF90EF90DF90CF90BF90AF909F908F90DA
S1130A600895262F30E044E0359527954A95E1F71F
S1130A702A30310511F40C94C1032C30310511F4E2
S1130A800C9427046D3051F080EE80933A228DE06F
S1130A9080933B2210923C220C9499030895DF9298
S1130AA0EF92FF920F931F93CF93DF93CDB7DEB7EF
S1130AB0A897CDBFDEBF8C01D62E88E2EBE4F0E22E
S1130AC0DE01119601900D928A95E1F740E0F8015C
S1130AD06381848195810E94B60EF8018481958199
S1130AE00E94440EF8012481358181112EC06D2DA0
S1130AF0C9010E94C20E41E063E0F801848195813E
S1130B000E94810EF801848195810E94440EF801AF
S1130B1024813581882349F0BE016F5F7F4FC9016D
S1130B200E944B0E80E090E05AC041E0F8016381DE
S1130B30C9010E94B60EF801848195810E94440E79
S1130B40F80124813581882361F041E063E0C90123
S1130B500E94810EBE016F5F7F4FF80184819581F1
S1130B60DFCF60E0C9010E947C0EE82EF12CFE2C40
S1130B70EE2440E062E0F801848195810E94810EB8
S1130B8061E0F801848195810E947C0EE82A6D2D34
S1130B9070E0605A710977FF02C06F5F7F4F7595EF
S1130BA06795F801E60FF71F87891F928F937F934C
S1130BB06F93FF92EF92FF92EF927F936F938FE286
S1130BC090E29F938F931F9280E48F938AE392E243
S1130BD09F938F930E94CB1BCDBFDEBFC701A89606
S1130BE0CDBFDEBFDF91CF911F910F91FF90EF90AA
S1130BF0DF9008950F931F93CF93DF93CDB7DEB7A4
S1130C00A497CDBFDEBF8C0184E2E3E7F0E2DE010E
S1130C10119601900D928A95E1F740E0F801638105
S1130C20848195810E94B60EF801848195810E9489
S1130C30440EF80124813581882331F041E063E0DA
S1130C40C9010E94810E12C06EE1C9010E94C20E48
S1130C5041E063E0F801848195810E94810EF801EE
S1130C60848195810E94440E882349F0BE016F5F00
S1130C707F4FF801848195810E944B0E04C083E06C
S1130C8090E00E943F10A496CDBFDEBFDF91CF91CC
S1130C901F910F910895CF93DF93EC0162EA0E94B4
S1130CA04F058E839F8364EACE010E944F05888797
S1130CB0998766EACE010E944F058A879B8768EA76
S1130CC0CE010E944F058C879D876AEACE010E945F
S1130CD04F058E879F876CEACE010E944F05888B53
S1130CE0998BDF91CF910895CF92DF92EF920F937A
S1130CF01F93CF93DF93EC016A01E62E6EE06A8BBB
S1130D0050E15B8B87E08C8B35E03D8B8E8B95E1DE
S1130D109F8B688F598F8A8F3B8F8C8F9D8FC88252
S1130D20D982EA822B830C831D83CE010E94FA05AB
S1130D30CE01DF91CF911F910F91EF90DF90CF9073
S1130D400C944B060F931F93CF93DF93CDB7DEB76D
S1130D50E297CDBFDEBF8C0182E3E7E9F0E2DE017A
S1130D60119601900D928A95E1F740E0F8016381B4
S1130D70848195810E94B60EF801848195810E9438
S1130D80440EF80124813581882331F041E063E089
S1130D90C9010E94810E14C0F8016081605CC90120
S1130DA00E94C20E41E063E0F801848195810E94B3
S1130DB0810EF801848195810E94440E882349F0B4
S1130DC0BE016F5F7F4FF801848195810E944B0EB5
S1130DD005C0F801818192810E944E10E296CDBF38
S1130DE0DEBFDF91CF911F910F9108950F931F9351
S1130DF0CF93DF93CDB7DEB7E597CDBFDEBF8C01D0
S1130E0085E3E9ECF0E2DE01119601900D928A95FA
S1130E10E1F740E0F8016381848195810E94B60E78
S1130E20F801848195810E94440EF8012481358162
S1130E30882331F041E063E0C9010E94810E14C0AF
S1130E40F8016081605BC9010E94C20E41E063E069
S1130E50F801848195810E94810EF8018481958135
S1130E600E94440E882349F0BE016F5F7F4FF80152
S1130E70848195810E944B0E05C0F8018181928185
S1130E800E944E10E596CDBFDEBFDF91CF911F913A
S1130E900F910895EF92FF920F931F93CF93DF93D7
S1130EA0CDB7DEB7AA97CDBFDEBF8C018AE2EEEFE5
S1130EB0F0E2DE01119601900D928A95E1F740E08F
S1130EC0F8016381848195810E94B60EF8018481C2
S1130ED095810E94440EF8012481358181112FC02F
S1130EE060E0C9010E94C20E41E063E0F801848120
S1130EF095810E94810EF801848195810E94440E9F
S1130F00F80124813581882351F0BE016F5F7F4F42
S1130F10C9010E944B0E60E070E0CB014AC041E081
S1130F20F8016381C9010E94B60EF801848195819C
S1130F300E94440EF80124813581882361F041E048
S1130F4063E0C9010E94810EBE016F5F7F4FF8010B
S1130F5084819581DECF60E0C9010E947C0EE82E79
S1130F6040E062E0F801848195810E94810E60E096
S1130F70F801848195810E947C0EF82E40E062E0A5
S1130F80F801848195810E94810E61E0F8018481D9
S1130F9095810E947C0E4F2D50E060E070E0762F2A
S1130FA0652F542F44276E298A019B01082BC90100
S1130FB0B801AA96CDBFDEBFDF91CF911F910F91EB
S1130FC0FF90EF9008952F923F924F925F926F920D
S1130FD07F928F929F92AF92BF92CF92DF92EF92C5
S1130FE0FF920F931F93CF93DF93CDB7DEB76A972A
S1130FF0CDBFDEBF1C010E94A206C1010E944A07A8
S11310004B015C01C1010E94F606C1010E944A071E
S11310102B013C01F101668970E080E090E00E94C0
S113102077129B01AC0160E070E080E090E40E94E4
S11310309B136B017C01C301B2010E9477122B0147
S11310403C01F1016685778580E090E00E9477128B
S1131050A70196010E942E139B01AC01C301B201AA
S11310600E945D116B017C01F101678970E080E0F1
S113107090E00E9477129B01AC0160E070E080E098
S113108090E40E949B132B013C01F101638970E001
S113109080E090E00E9477129B01AC0160E070E078
S11310A080E090E40E949B1369877A878B879C87F2
S11310B0F101658970E080E090E00E9477129B0165
S11310C0AC0160E070E080E090E40E949B136D87C7
S11310D07E878F87988BF101628970E080E090E0D1
S11310E00E9477129B01AC0160E070E080E090E424
S11310F00E949B13698B7A8B8B8B9C8BF101648987
S113110070E080E090E00E9477129B01AC0160E007
S113111070E080E090E40E949B136D8B7E8B8F8B3C
S1131120988FF1016089718980E090E00E947712C4
S1131130A70196010E942E13A30192010E94CF11D0
S113114020E030E04AEF54E40E945E1120E030E0F9
S113115048EC52E40E94CF11162F072F898F9A8FE3
S1131160F1016285738580E090E00E947712A70107
S113117096010E942E132D893E894F89588D0E9415
S1131180CF112B013C01F1016681778180E090E071
S11311900E94771229893A894B895C890E942E130F
S11311A09B01AC01C301B2010E945E112B013C0101
S11311B0C501B4010E9477129B01AC01C301B201C5
S11311C00E942E1320E030E040E055E30E942E13ED
S11311D04B015C01F1016485758580E090E00E941B
S11311E07712A70196010E942E132D853E854F8507
S11311F058890E94CF116B017C01F10160857185D2
S113120080E090E00E94771229853A854B855C85C1
S11312100E942E139B01AC01C701B6010E945E110E
S11312209B01AC01C501B4010E945D1120E030E0D6
S113123040E058E30E942E1320E030E048EC52E4F2
S11312400E94CF119B01AB01BC0149835A836B837C
S11312507C83812F902FA98DBA8D8D839E83AF833C
S1131260B8873A814B815C81612F7E818F8198851B
S11312706A96CDBFDEBFDF91CF911F910F91FF9092
S1131280EF90DF90CF90BF90AF909F908F907F9022
S11312906F905F904F903F902F900895FC0198E0DD
S11312A090934106909346061082089528E0209377
S11312B0450621E0FC012083089528E0209346069A
S11312C0FC01108208951F920F920FB60F92112401
S11312D008B60F9218BE09B60F9219BE0BB60F923C
S11312E01BBE2F933F934F935F936F937F938F9383
S11312F09F93AF93BF93EF93FF93609113227091E9
S11313001422809115229091162220911722309157
S113131018224091192250911A220E945E11609362
S11313201722709318228093192290931A220E94F4
S11313304603FF91EF91BF91AF919F918F917F9160
S11313406F915F914F913F912F910F900BBE0F9032
S113135009BE0F9008BE0F900FBE0F901F901895F6
S1131360FC016787E6E0F8E080818C7F682B60836E
S113137008950F93FC016083609300082093132267
S1131380309314224093152250931622602F0F910C
S11313900C94B0098F929F92AF92BF92CF92DF923A
S11313A0EF92FF920F931F93CF93DF93CDB7DEB7E6
S11313B02897CDBFDEBF09831A832B833C834D83DB
S11313C05E836F83788788E0FE013196AEE2B2E2F5
S11313D001900D928A95E1F7E0922C22F0922D2251
S11313E0C0922A22D0922B22A0922822B0922922A3
S11313F08092262290922722888D998D8093242290
S1131400909325228A8D9B8D809322229093232270
S11314108C8D9D8D80932022909321228E8D9F8D83
S113142080931E2290931F2288A199A180931C224D
S113143090931D222896CDBFDEBFDF91CF911F91DF
S11314400F91FF90EF90DF90CF90BF90AF909F905F
S11314508F900895CF92DF92EF92FF920F931F9394
S1131460CF93DF938C01C0E0D0E0C12CD12C760166
S1131470C017D10769F060E080912C2290912D2251
S11314800E94DC02C80ED91EE11CF11C2196F0CF8B
S1131490C701B6010E9477126B017C01BE0180E096
S11314A090E00E9477129B01AC01C701B6010E9433
S11314B0CF11DF91CF911F910F91FF90EF90DF90AB
S11314C0CF900895CF93DF93CEE2D2E22881398181
S11314D04A815B810E942E132C813D814E815F8164
S11314E00E945E11DF91CF9108954F925F926F92A7
S11314F07F928F929F92AF92BF92CF92DF92EF92A0
S1131500FF926C014090172250901822609019228B
S113151070901A2280911C2290911D220E945011D9
S1131520E12CF12C609117227091182280911922DC
S113153090911A22A30192010E945D114B015C015A
S1131540C701B6010E9477129B01AC01C501B40129
S11315500E94CA1187FDE6CF80911C2290911D2222
S1131560FF90EF90DF90CF90BF90AF909F908F90BF
S11315707F906F905F904F900C9457112F923F92F1
S11315804F925F926F927F928F929F92AF92BF928F
S1131590CF92DF92EF92FF920F931F93CF93DF933B
S11315A0CDB7DEB76097CDBFDEBF00E110E019868E
S11315B01A861B861C8680912A2290912B220E94D7
S11315C0E30729833A834B835C836D837E838F8314
S11315D0988720E030E040E85DE369817A818B817F
S11315E09C810E942E139B01AC0169857A858B85B1
S11315F09C850E945E1169877A878B879C8701503E
S11316001109C9F6409017225090182260901922AF
S113161070901A228091172290911822A091192279
S1131620B0911A228D879E87AF87B88B80911E2236
S113163090911F220E94571180911C2290911D228B
S11316400E94501180912822909129220E945609CB
S1131650812C912C54018EE7282E81E2382E809122
S113166039228823C9F1809137228823A9F18091F6
S11316701B22882389F1109239221092372210926A
S11316801B2280911E2290911F220E94501180E300
S113169095E70E94750A80911E2290911F220E9454
S11316A0571180912822909129226096CDBFDEBFE8
S11316B0DF91CF911F910F91FF90EF90DF90CF902A
S11316C0BF90AF909F908F907F906F905F904F905E
S11316D03F902F900C945D09C0901722D09018224F
S11316E0E0901922F0901A2200911C2210911D22E0
S11316F0D80111968C91882381F0A3019201C7012E
S1131700B6010E945D1120E030E04AEF54E40E94EB
S1131710291318160CF4AEC00FC0A3019201C7011F
S1131720B6010E945D1120E030E04AEF55E40E94CA
S1131730291318160CF4A2C02D853E854F855889AF
S1131740C701B6010E945D1120E030E44CE156E48B
S11317500E94291318160CF04AC080E094E00E94FD
S11317602A0A0E94620A1F921F921F921F921F92BE
S11317701F921F921F929F938F937F936F931F9239
S11317801F921F921F921F921F921F921F922EEB65
S113179031EC47E95DE3C501B4010E942E139F9328
S11317A08F937F936F931F921F9220E030E04AE75C
S11317B054E4C701B6010E94CF110E9441127F93E5
S11317C06F933F922F921F9290E49F93AAE3B2E209
S11317D0BF93AF930E94CB1BCDBFDEBF0E94990382
S11317E0CD86DE86EF86F88A812C912C5401809177
S11317F02A2290912B220E94E30729833A834B8368
S11318005C836D837E838F83988729853A854B8596
S11318105C8569817A818B819C810E945D116B0159
S11318207C0120E030E0A9010E94291387FD0CC04F
S1131830C701B6010E94F1139B01AC01C501B401BB
S11318400E945E114B015C012AE939E949E95DE333
S1131850C701B6010E94291320911E2230911F2234
S1131860181624F4C9010E945011F9CEC9010E942E
S11318705711F5CEC8010E94571103C0C8010E9438
S113188050112601370158CF4F925F926F927F9289
S11318908F929F92AF92BF92CF92DF92EF92FF927C
S11318A01F93CF93DF93CDB7DEB72C97CDBFDEBFA9
S11318B040901722509018226090192270901A229A
S11318C080911E2290911F220E945011809120220B
S11318D0909121220E94571180911C2290911D22E7
S11318E00E94571180912822909129220E94560922
S11318F010E019861A861B861C86812C912C5401B3
S1131900C0901722D0901822E0901922F0901A2249
S1131910E0911E22F0911F228181882379F1A30195
S11319209201C701B6010E945D1120E030E84BE34B
S113193056E40E94291318160CF580E094E00E94E6
S11319402A0A20E030E040E05EE30E942E139B016F
S1131950AC01C501B4010E945E114B015C01809190
S11319601E2290911F220E94571188EB9BE00E9437
S1131970750A8091202290912122A3C0E091202217
S1131980F09121228181811168C0183009F0B8CF0B
S113199080912022909121220E94571180911E2231
S11319A090911F220E94501180E395E70E94750ACE
S11319B080911E2290911F220E945711809128220B
S11319C0909129220E945D0929853A854B855C8581
S11319D0C501B4010E945D119B01AC0168E774E18B
S11319E08EE790E40E94CF11FB01F62EAB01BC01FF
S11319F049835A836B837C839F01AC01C501B40185
S1131A000E942E139B01AC016FE872EC87EA91E40B
S1131A100E945D11E62F462F572FBC014D835E8334
S1131A206F8378872F2D3A814B815C816E2F7E8165
S1131A308F8198852C96CDBFDEBFDF91CF911F910A
S1131A40FF90EF90DF90CF90BF90AF909F908F90DA
S1131A507F906F905F904F900895A3019201C7010A
S1131A60B6010E945D1120E030E84BE356E40E9489
S1131A70291318160CF089CF80E094E00E942A0AFA
S1131A8020E030E040E05EE30E942E139B01AC01B5
S1131A9069857A858B859C850E945E1169877A8722
S1131AA08B879C871F5F80912022909121220E9426
S1131AB0571188EB9BE00E94750A80911E22909139
S1131AC01F220E945011260137015FCF2F923F92AF
S1131AD04F925F926F927F928F929F92AF92BF923A
S1131AE0CF92DF92EF92FF921F93CF93DF93CDB704
S1131AF0DEB72897CDBFDEBF409017225090182242
S1131B006090192270901A228091202290912122B3
S1131B100E94501180911C2290911D220E94571105
S1131B2080912822909129220E94560910E0C12C0C
S1131B30D12C76012090202230902122183009F4F3
S1131B4040C08090172290901822A0901922B09043
S1131B501A22F1018181882389F3A3019201C5012D
S1131B60B4010E945D1120E030E84BE356E40E948A
S1131B70291318161CF780E094E00E942A0A20E03A
S1131B8030E040E05EE30E942E139B01AC01C701EC
S1131B90B6010E945E116B017C011F5F80912022BF
S1131BA0909121220E94571188EB9BE00E94750AB4
S1131BB080912022909121220E945011240135010C
S1131BC0B9CFC1010E94501180E395E70E94750AC4
S1131BD080912022909121220E94571180912822E5
S1131BE0909129220E945D0960912E22F0912F226A
S1131BF0E091302270913122162F862F9F2FAE2F25
S1131C00B72F89839A83AB83BC83262F3F2F4E2F14
S1131C10572FC701B6010E942E139B01AC016FE838
S1131C2072EC87EA91E40E945D11E62F462F572F4C
S1131C30BC014D835E836F837887212F3A814B816A
S1131C405C816E2F7E818F8198852896CDBFDEBF03
S1131C50DF91CF911F91FF90EF90DF90CF90BF90D5
S1131C60AF909F908F907F906F905F904F903F9038
S1131C702F9008958091A40487FFFCCF089580914C
S1131C80A40486FFFCCF08959091A4049C7181E084
S1131C9009F480E00895089521E0FC012583E1EA38
S1131CA0F4E0808188608083089521E0FC0120872E
S1131CB0E2EAF4E08081816080830895FC01668318
S1131CC0E2EAF4E0808194E0699FB0011124837F0B
S1131CD0682B60830895FC016187662319F06130E5
S1131CE029F008958091A3048B7F03C08091A304FD
S1131CF084608093A30408950E946B0E8091A704CE
S1131D0008951F93CF93DF93EC01162F642F0E9445
S1131D106B0E8091A3048C7F812B8093A3041230DB
S1131D2031F4CE01DF91CF911F910C943A0EDF91E3
S1131D30CF911F910895E4EAF4E08081816080836B
S1131D400895CF93DF93EC016A874E836093A504D3
S1131D50642F0E945E0ECE010E94550ECE010E9499
S1131D604C0ECE01DF91CF910C949B0E660F413047
S1131D7029F461606093A6040C943A0E6093A6045F
S1131D800C943F0E6093A7040C943F0E1F920F9285
S1131D900FB60F92112408B60F9218BE8F9381E0EC
S1131DA0809337228091B008809336228F910F90D0
S1131DB008BE0F900FBE0F901F9018958091B10828
S1131DC085FFFCCF0895CF93C62F0E94DE0EC093EB
S1131DD0B008CF910895EF92FF920F931F93CF9382
S1131DE07C018B01F801C1918F01CC2331F0C70133
S1131DF00E94DE0EC093B008F5CFCF911F910F91D2
S1131E00FF90EF900895FC016083E3EBF8E080819C
S1131E1090E1699FB00111248F7C682B6083089541
S1131E2021E0FC012383E4EBF8E08081806180837E
S1131E30089521E0FC012483E4EBF8E080818860CC
S1131E408083089521E0FC012583E4EBF8E08081A0
S1131E50846080830895FC01638774876093B60867
S1131E60E7EBF8E080818F70782B70830895FC0194
S1131E706587E7EBF8E0808190E1699FB001112468
S1131E808F70682B60830895FF920F931F93CF93F5
S1131E90DF93EC01F62E072F122FBA010E942B0FAD
S1131EA06F2DCE010E94370F002319F0CE010E943E
S1131EB0220FCE010E94100FCE010E94190F612F34
S1131EC0CE010E94030F80E880934106DF91CF91F9
S1131ED01F910F91FF9008951F920F920FB60F92CA
S1131EE0112408B60F9218BE8F9381E08093392293
S1131EF08091A00A809338228F910F9008BE0F9092
S1131F000FBE0F901F9018958091A10A85FFFCCFFA
S1131F100895CF93C62F0E94840FC093A00ACF9137
S1131F200895EF92FF920F931F93CF937C018B013F
S1131F30F801C1918F01CC2331F0C7010E94840FB5
S1131F40C093A00AF5CFCF911F910F91FF90EF900E
S1131F500895FC016083E3EAFAE0808190E1699FDF
S1131F60B00111248F7C682B6083089521E0FC016B
S1131F702383E4EAFAE0808180618083089521E08C
S1131F80FC012483E4EAFAE0808188608083089578
S1131F9021E0FC012583E4EAFAE080818460808307
S1131FA00895FC01638774876093A60AE7EAFAE060
S1131FB080818F70782B70830895FC016587E7EA30
S1131FC0FAE0808190E1699FB00111248F70682B41
S1131FD060830895FF920F931F93CF93DF93EC01D7
S1131FE0F62E072F122FBA010E94D10F6F2DCE01AA
S1131FF00E94DD0F002319F0CE010E94C80FCE010C
S11320000E94B60FCE010E94BF0F612FCE010E9425
S1132010A90F88E080938106DF91CF911F910F91E2
S1132020FF9008959091500041E050E0082E02C0C6
S1132030440F551F0A94E2F7942B9093500020917B
S1132040510030E024233523232BC9F398ED94BFAA
S1132050809340000895E2EAF0E04081815021E05D
S113206030E0B90102C0660F771F8A95E2F7CB0111
S1132070842B808308958FB780688FBF089520E0F4
S113208030E02817390749F0EFE3FFE13197F1F722
S113209000C000002F5F3F4FF4CF089520E030E0F0
S11320A02817390739F04AE04A95F1F700C02F5F45
S11320B03F4FF6CF0895CF93DF93CDB7DEB7C25924
S11320C0D109CDBFDEBF81E00E94121043E067E07A
S11320D0CE0101960E94110303E02FE632E143E0B2
S11320E050E461E0CE018B5B9F4F0E94B90941E04F
S11320F06BE9CE0189589F4F0E94A10E4091B421F3
S11321005091B5216091B6217091B7213E0189E6C5
S1132110680E711C22E0C3010E94EA0F4091B821AD
S11321205091B9216091BA217091BB212E019BE598
S1132130490E511C22E0C2010E94440FCE018E566A
S11321409F4F0E944E096E018EE8C80ED11C62E0BA
S1132150C6010E9447117E019CE8E90EF11C64E06F
S1132160C7010E9447115E018AE8A80EB11C60E114
S1132170C5010E94471188E0E1E0F0E2DE01AE57BC
S1132180BF4F01900D928A95E1F78091282190919B
S11321902921A0912A218E0109581F4F26E7AC015D
S11321A06A2FCE0187960E947406BF92AF92DF9287
S11321B0CF92FF92EF925F924F927F926F92CE01F5
S11321C08B5B9F4F4C01835B9F4F5C018B56910946
S11321D06C0186977C01CE57DF4F0881C258D040EE
S11321E0CD57DF4F1881C358D040CC57DF4F2881DB
S11321F0C458D040CB57DF4F3881C558D040CA5758
S1132200DF4F4881C658D040C957DF4F5881C7585F
S1132210D040C857DF4F6881C858D040C757DF4FF8
S11322207881C958D04080579F4F0E94CA098201C3
S11322309301A40160E0CE0180579F4F0E943303B5
S113224082E00E942B1083E00E942B100E943B101E
S1132250CDBFDEBF80913922882351F010923922FC
S11322606091382240E0CE0180579F4F0E94310593
S113227080913722882371F310923722609136229D
S113228041E0CE0180579F4F0E943105E3CFFC010E
S1132290608360934106808180934606118208958D
S11322A0FC0120812093450621E021830895FC014F
S11322B0208120934606118208955058BB27AA27EF
S11322C00E9475110C94EF120E94E11238F00E94E2
S11322D0E81220F039F49F3F19F426F40C94DE122E
S11322E00EF4E095E7FB0C94D812E92F0E9400133A
S11322F058F3BA17620773078407950720F079F437
S1132300A6F50C9422130EF4E0950B2EBA2FA02DF3
S11323100B01B90190010C01CA01A0011124FF278E
S1132320591B99F0593F50F4503E68F11A16F04089
S1132330A22F232F342F4427585FF3CF4695379588
S11323402795A795F0405395C9F77EF41F16BA0B4D
S1132350620B730B840BBAF09150A1F0FF0FBB1FFB
S1132360661F771F881FC2F70EC0BA0F621F731F44
S1132370841F48F4879577956795B795F7959E3FA1
S113238008F0B0CF9395880F08F09927EE0F979532
S1132390879508950E94B41208F481E008950E947C
S11323A0E3110C94EF120E94E81258F00E94E1121B
S11323B040F029F45F3F29F00C94D81251110C9489
S11323C023130C94DE120E94001368F39923B1F3D3
S11323D0552391F3951B550BBB27AA276217730747
S11323E0840738F09F5F5F4F220F331F441FAA1FDB
S11323F0A9F335D00E2E3AF0E0E832D09150504097
S1132400E695001CCAF72BD0FE2F29D0660F771F44
S1132410881FBB1F261737074807AB07B0E809F02A
S1132420BB0B802DBF01FF2793585F4F3AF09E3FAF
S1132430510578F00C94D8120C9423135F3FE4F305
S1132440983ED4F3869577956795B795F7959F5FF2
S1132450C9F7880F911D9695879597F90895E1E03E
S1132460660F771F881FBB1F621773078407BA079D
S113247020F0621B730B840BBA0BEE1F88F7E095F8
S113248008950E9448126894B1110C94231308957E
S11324900E94081388F09F5798F0B92F9927B751D5
S11324A0B0F0E1F0660F771F881F991F1AF0BA95F4
S11324B0C9F714C0B13091F00E942213B1E008951D
S11324C00C942213672F782F8827B85F39F0B93F0F
S11324D0CCF3869577956795B395D9F73EF49095A7
S11324E08095709561957F4F8F4F9F4F0895E89425
S11324F009C097FB3EF490958095709561957F4F48
S11325008F4F9F4F9923A9F0F92F96E9BB279395F5
S1132510F695879577956795B795F111F8CFFAF405
S1132520BB0F11F460FF1BC06F5F7F4F8F4F9F4F36
S113253016C0882311F096E911C0772321F09EE894
S1132540872F762F05C0662371F096E8862F70E0FA
S113255060E02AF09A95660F771F881FDAF7880FD4
S11325609695879597F90895990F0008550FAA0B2A
S1132570E0E8FEEF16161706E807F907C0F0121692
S11325801306E407F50798F0621B730B840B950B95
S113259039F40A2661F0232B242B252B21F40895EA
S11325A00A2609F4A140A6958FEF811D811D089587
S11325B097F99F6780E870E060E008959FEF80ECF2
S11325C0089500240A941616170618060906089595
S11325D000240A9412161306140605060895092EFB
S11325E00394000C11F4882352F0BB0F40F4BF2B6A
S11325F011F460FF04C06F5F7F4F8F4F9F4F0895AA
S113260057FD9058440F551F59F05F3F71F047959F
S1132610880F97FB991F61F09F3F79F08795089584
S1132620121613061406551FF2CF4695F1DF08C0A3
S1132630161617061806991FF1CF869571056105C0
S113264008940895E894BB2766277727CB0197F968
S113265008950E94B41208F48FEF08950E94411364
S11326600C94EF120E94E11238F00E94E81220F05C
S1132670952311F00C94D8120C94DE1211240C94AE
S113268023130E94001370F3959FC1F3950F50E03C
S1132690551F629FF001729FBB27F00DB11D639F10
S11326A0AA27F00DB11DAA1F649F6627B00DA11DB6
S11326B0661F829F2227B00DA11D621F739FB00D5C
S11326C0A11D621F839FA00D611D221F749F3327CC
S11326D0A00D611D231F849F600D211D822F762F65
S11326E06A2F11249F5750409AF0F1F088234AF042
S11326F0EE0FFF1FBB1F661F771F881F91505040AE
S1132700A9F79E3F510580F00C94D8120C94231322
S11327105F3FE4F3983ED4F3869577956795B79534
S1132720F795E7959F5FC1F7FE2B880F911D96954E
S1132730879597F90895FA01EE0FFF1F309621054A
S11327403105A1F16115710561F48038BFE39B0780
S113275049F168949038810561F08038BFEF9B0798
S113276041F099234AF5FF3FE1053105210519F1AF
S1132770E8940894E795D901AA2329F4AB2FBE2F36
S1132780F85FD0F310C0FF5F70F4A695E0F7F73957
S113279050F019F0FF3A38F49F779F930DD00F90C3
S11327A007FC9058089546F00C94DE1260E070E047
S11327B080E89FE308954FE79F775F934F933F939C
S11327C02F930E94F1142F913F914F915F910E949A
S11327D02E130C94391419F416F40C94DE120C9480
S11327E06B140E940813B8F39923C9F3B6F39F57E7
S11327F0550B87FF0E9479140024A0E640EA90015B
S113280080585695979528F4805C660F771F881F2B
S113281020F026173707480730F4621B730B840B2C
S1132820202931294A2BA695179407942025312570
S11328304A2758F7660F771F881F20F02617370797
S1132840480730F4620B730B840B200D311D411DBE
S1132850A09581F7B901842F9158880F9695879593
S1132860089529F416F00C94D8120C9422130C94A5
S1132870DE120E940813A8F39638A0F707F80F9207
S1132880E8942BE33AEA48EB5FE70E9444130F9283
S11328900F920F924DB75EB70F920E943915ECE17B
S11328A0F2E00E9480144F915F91EF91FF91E595C2
S11328B0EE1FFF1F49F0FE57E0684427EE0F441F48
S11328C0FA95E1F74195550B0E94B3140F9007FE5A
S11328D00C94A71408959F3F31F0915020F48795EC
S11328E077956795B795880F911D9695879597F974
S11328F0089591505040660F771F881FD2F70895AE
S1132900DF93CF931F930F93FF92EF92DF927B019C
S11329108C01689406C0DA2EEF010E944113FE0177
S1132920E894A5912591359145915591A6F3EF0130
S11329300E947511FE019701A801DA9469F7DF90EE
S1132940EF90FF900F911F91CF91DF9108959B011C
S1132950AC0160E070E080E89FE30C94CF110C942C
S1132960D8120C946B140E940813D8F39923C9F35A
S1132970940F511DA3F39150504094F059F08823C3
S113298032F0660F771F881F91505040C1F79E3F69
S113299051052CF7880F911D9695879597F9089501
S11329A05F3FACF0983E9CF0BB2786957795679582
S11329B0B79508F4B1609395C1F7BB0F58F711F4BC
S11329C060FFE8CF6F5F7F4F8F4F9F4FE3CF0C9433
S11329D0231316F00C946B140C94DE1268940C946C
S11329E0D8120E940813A8F39923C1F3AEF3DF931E
S11329F0CF931F930F93FF92C92FDD2788232AF0CB
S1132A002197660F771F881FDAF720E030E040E84F
S1132A105FEB9FE3883920F0803E38F021968F7772
S1132A200E945E11E4E4F2E004C00E945E11E1E75A
S1132A30F2E00E9480148B01BE01EC01FB2E6F5763
S1132A4071097595771F880B990B0E94791228E1FB
S1132A5032E741E35FE30E944113AF2D9801AE01D9
S1132A60FF900F911F91CF91DF910E9475110C94EB
S1132A70EF12FA01DC01AA0FBB1F9B01AC01BF5787
S1132A8028F4222733274427507820C0B75190F4E4
S1132A90AB2F0024469537952795011CA395D2F3B7
S1132AA0002071F0220F331F441FB395DAF30ED0C8
S1132AB00C945D1161307105A0E88A07B94630F4C1
S1132AC09B01AC016627772788279078309621F000
S1132AD0208331834283538308952F923F924F92F0
S1132AE05F926F927F928F929F92AF92BF92CF929A
S1132AF0DF92EF92FF920F931F93CF93DF93CDB7A3
S1132B00DEB76097CDBFDEBF7C011B016A01FC010B
S1132B1016821782838181FF44C39E012F5F3F4F3A
S1132B203901F7019381F10193FD859193FF81911F
S1132B301F01882309F431C3853239F493FD85914B
S1132B4093FF81911F01853239F4B70190E00E940F
S1132B508F1B56016501E5CF10E0512C912CFFE14C
S1132B60F915D8F08B3279F038F4803279F0833269
S1132B70A1F4F92DF0612EC08D3261F0803369F437
S1132B80292D21602DC0392D3260932E892D84602A
S1132B90982E2AC0E92DE86015C097FC2DC020EDC1
S1132BA0280F2A3088F496FE06C03AE0139F200DC1
S1132BB01124122F19C08AE0589E200D1124522E80
S1132BC0E92DE0629E2E10C08E3231F496FCE5C2EF
S1132BD0F92DF0649F2E08C08C3621F4292D20682D
S1132BE0922E02C0883641F4F10193FD859193FF42
S1132BF081911F018111B3CF9BEB980F933020F487
S1132C00992D9061805E07C09BE9980F933008F07E
S1132C1066C1992D9F7E96FF16E09F73992E853687
S1132C2019F49064992E08C0863621F4392F30683F
S1132C30932E02C01111115097FE07C01C3350F49B
S1132C4044244394410E27E00BC0183038F027E0A9
S1132C5017E005C027E09CE3492E02C0212F412C38
S1132C60560184E0A80EB11CF60160817181828155
S1132C709381042DA3010E94721A6C01F981FC87CF
S1132C80F0FF02C0F3FF06C091FC06C092FE06C02E
S1132C9000E205C00DE203C00BE201C000E08C8538
S1132CA08C7019F001115AC29BC297FE10C04C0CD3
S1132CB0FC85F4FF04C08A81813309F44A94141416
S1132CC074F528E0241578F588E0482E2CC096FC8D
S1132CD02AC0812F90E08C159D059CF03CEFC31613
S1132CE03FEFD30674F0892D8068982E0AC0E2E085
S1132CF0F0E0EC0FFD1FE10FF11D8081803319F42A
S1132D0011501111F4CF97FE0EC044244394410E88
S1132D10812F90E0C816D9062CF41C1904C0442451
S1132D20439401C010E097FE06C01C141D0434F443
S1132D30C601019605C085E090E002C081E090E004
S1132D4001110196112331F0212F30E02F5F3F4F05
S1132D50820F931F252D30E08217930714F4581A1D
S1132D6001C0512C892D897049F4552039F0B701DF
S1132D7080E290E00E948F1B5A94F7CF002329F041
S1132D80B701802F90E00E948F1B93FC09C055204F
S1132D9039F0B70180E390E00E948F1B5A94F7CF7B
S1132DA097FE4CC04601D7FE02C0812C912CC6016F
S1132DB088199909F301E80FF91FED87FE87960139
S1132DC0241931092F87388B012F10E011950195B3
S1132DD011093FEF8316930629F4B7018EE290E0C0
S1132DE00E948F1BC814D9044CF08F8598898815CC
S1132DF0990524F4ED85FE85818101C080E3F1E02D
S1132E008F1A91082D853E852F5F3F4F2D873E8772
S1132E10801691062CF0B70190E00E948F1BD9CF49
S1132E20C814D90441F49A81963320F4953319F4E3
S1132E303C8534FF81E3B70190E04EC08A81813341
S1132E4019F09C859F7E9C87B70190E00E948F1BA0
S1132E50111105C094FC18C085E690E017C0B701B5
S1132E608EE290E00E948F1B1E5F82E001E0080F5B
S1132E70F301E80FF11D8081B70190E00E948F1BE0
S1132E80802F0113F3CFE6CF85E490E0B7010E94D1
S1132E908F1BD7FC06C0C114D10441F4EC85E4FFB8
S1132EA005C0D194C194D1088DE201C08BE2B70171
S1132EB090E00E948F1B80E32AE0C216D1042CF01C
S1132EC08F5FFAE0CF1AD108F7CFB70190E00E94E4
S1132ED08F1BB701C601C0960E948F1B54C1833655
S1132EE031F0833779F0833509F056C020C056019C
S1132EF032E0A30EB11CF6018081898301E010E069
S1132F00630112C05601F2E0AF0EB11CF601C0809D
S1132F10D18096FE03C0612F70E002C06FEF7FEF97
S1132F20C6010E94841B8C01F92DFF7714C0560141
S1132F3022E0A20EB11CF601C080D18096FE03C02F
S1132F40612F70E002C06FEF7FEFC6010E946B1B20
S1132F508C01F92DF0689F2EF3FD1AC0852D90E0A9
S1132F6008171907A8F4B70180E290E00E948F1BAC
S1132F705A94F4CFF60197FC859197FE81916F01E5
S1132F80B70190E00E948F1B51105A94015011090F
S1132F900115110579F7F7C0843611F0893661F50A
S1132FA0560197FE09C024E0A20EB11CF60160810F
S1132FB07181828193810AC0F2E0AF0EB11CF601E7
S1132FC060817181072E000C880B990BF92DFF7617
S1132FD09F2E97FF09C090958095709561957F4FBE
S1132FE08F4F9F4FF0689F2E2AE030E0A3010E948C
S1132FF0021CC82EC6183FC0092D853721F40F7E48
S11330002AE030E01DC0097F8F3691F018F488352E
S113301059F0C3C0803719F0883711F0BEC0006181
S113302004FF09C0046007C094FE08C0066006C01F
S113303028E030E005C020E130E002C020E132E0C9
S1133040560107FF09C084E0A80EB11CF601608197
S113305071818281938108C0F2E0AF0EB11CF60148
S11330606081718180E090E0A3010E94021CC82E5F
S1133070C6180F77902E96FE0BC0092D0E7FC11631
S113308050F494FE0AC092FC08C0092D0E7E05C0BF
S1133090DC2C092D03C0DC2C01C0D12E04FF0DC093
S11330A0FE01EC0DF11D8081803311F4097E09C00D
S11330B002FF06C0D394D39404C0802F867809F00D
S11330C0D39403FD11C000FF06C01C2DD51480F459
S11330D0150D1D190DC0D51458F4B70180E290E008
S11330E00E948F1BD394F7CFD51410F45D1801C040
S11330F0512C04FF10C0B70180E390E00E948F1BA5
S113310002FF17C001FD03C088E790E002C088E514
S113311090E0B7010CC0802F867859F001FF02C0FF
S11331208BE201C080E207FD8DE2B70190E00E94CE
S11331308F1BC11638F4B70180E390E00E948F1B07
S11331401150F7CFCA94F301EC0DF11D8081B70142
S113315090E00E948F1BC110F5CF15C0F4E0F51567
S113316060F584E0581A93FE1FC0011127C02C8516
S113317023FF2AC00EEB12E0392D3071932EF80193
S11331808491811124C0552009F4E4CCB70180E274
S113319090E00E948F1B5A94F6CFF70186819781A5
S11331A026C08FEF9FEF23C0B70180E290E00E941A
S11331B08F1B5A945110F8CFD8CF512CB701802FC0
S11331C090E00E948F1BD3CF02EC12E0D5CF911078
S11331D08052B70190E00E948F1B0F5F1F4FCFCF2B
S11331E023E0251510F483E0BDCF512CC0CF6096A9
S11331F0CDBFDEBFDF91CF911F910F91FF90EF9074
S1133200DF90CF90BF90AF909F908F907F906F9002
S11332105F904F903F902F900895EE0FFF1F881FEF
S11332208BBF0790F691E02D1BBE19948F929F924D
S1133230AF92BF92CF92DF92EF92FF920F931F93C0
S1133240CF93DF93EC016B016115710519F0FB015C
S1133250808391837E01FFEFEF1AFF0A0881802F9C
S113326090E00E944A1B892B11F0E701F3CF0D3245
S113327039F47E0182E0E80EF11C098111E008C0F6
S11332800B3229F47E0192E0E90EF11C098110E071
S1133290E701219743E050E06EEC72E0CE010E941A
S11332A0531B892BC1F4239645E050E069EC72E08E
S11332B0CE010E94531B892B09F42596C114D10415
S11332C019F0F601C083D1831111F6C060E070E0FB
S11332D080E89FE7FAC043E050E066EC72E0CE017C
S11332E00E94531B892B59F4C114D10409F4E9C079
S11332F0F2E0EF0EF11CF601E082F182E2C020E080
S113330030E0A901C0E0D0E0F70160EDA62EA00EE8
S113331089E08A1530F1912F9260B92E812F88703F
S113332012FF04C0811124C0219622C0811121976B
S1133330A5E0B0E00E94631CDC01CB01880F991F5B
S1133340AA1FBB1F9C01AD012A0D311D411D511D3A
S1133350283989E93807480789E1580748F0166091
S113336006C09EEFA9120AC013FD40C01860B12E1A
S11333708FEFE81AF80A00811B2DC6CF802F8F7DAE
S11333808534A1F580818D3211F4106106C08B3231
S113339021F0319661E070E004C08181329662E0F0
S11333A070E080538A3018F0E61BF70B1FC060E012
S11333B070E060389CE079075CF4DB01AA0FBB1F66
S11333C0AA0FBB1F6A0F7B1F660F771F680F711D43
S11333D03196DF0111978C9180538A3050F314FF9A
S11333E003C0719561957109C60FD71F11FF08C0FD
S11333F0C114D10429F0CF010197F6018083918390
S1133400CA01B9010E947712212F2370233019F0C9
S11334104B015C0106C04B015C01B7FAB094B7F8EC
S1133420B09420E030E0A901C501B4010E94CA11A2
S1133430882309F43EC0D7FF06C0D195C195D109B0
S113344005EE12E002C00DEF12E06801F8E1CF1AB8
S1133450D10890E2E92EF12CCE15DF0574F0F801C5
S11334602591359145915491C501B4010E942E13C3
S11334704B015C01CE19DF09EFCF04501109F5941B
S1133480E7940C151D0541F78A2D880F8B2D881F95
S11334908F3F49F020E030E0A901C501B4010E944A
S11334A0CA11811106C082E290E080937A2290933F
S11334B07B22C501B40109C060E070E080E89FEFA1
S11334C004C060E070E080EC9FE7DF91CF911F9132
S11334D00F91FF90EF90DF90CF90BF90AF909F90AF
S11334E08F900895283008F027E03327DA01990FE8
S11334F0311D87FD916000966105710539F43260D4
S11335002E5F3D9330E32A95E1F708959F3F30F015
S113351080387105610509F03C5F3C5F3D93913053
S113352008F08068911DDF93CF931F930F93FF9250
S1133530EF92192F987F9695E92F96959695E90F16
S1133540FF27E55AFC4F99273327EE24FF24A701D0
S1133550E70105900894079428F4360FE71EF81E37
S1133560491F511D660F771F881F991F0694A1F7E5
S11335700590079428F4E70EF81E491F561FC11D35
S1133580770F881F991F661F0694A1F7059007946B
S113359028F4F80E491F561FC71FD11D880F991F05
S11335A0661F771F0694A1F70590079420F4490F2E
S11335B0561FC71FD81F990F661F771F881F0694B1
S11335C0A9F784911095177041F0D695C795579532
S11335D04795F794E7941A95C1F7E1E0F3E068940E
S11335E01590159135916591959105907FE27395AC
S11335F0E118F10A430B560BC90BD009C0F7E10CD3
S1133600F11E431F561FC91FD01D7EF4703311F4E1
S11336108A95E6CFE894015030F0080F0AF40027A9
S1133620021708F4202F2395022F7A3328F079E328
S11336307D932A95E9F710C07D932A9589F606941F
S113364097956795379517951794E118F10A430BE9
S1133650560BC90BD00998F023957E9173957A3354
S113366008F070E37C932013B8F77E9170617D932A
S113367030F0839571E37D9370E32A95E1F711248B
S1133680EF90FF900F911F91CF91DF91992787FDC4
S11336909095089591110C94601C803219F0895012
S11336A08550C8F70895FB01DC014150504088F073
S11336B08D9181341CF08B350CF4805E65916134FE
S11336C01CF06B350CF4605E861B611171F3990B71
S11336D00895881BFCCFFC010590615070400110D7
S11336E0D8F7809590958E0F9F1F0895DC0101C037
S11336F06D9341505040E0F70895FB01DC010190C7
S11337000D920020E1F70895FC0161507040019092
S11337100110D8F7809590958E0F9F1F08950F93F1
S11337201F93CF93DF93FB01238121FD03C08FEF10
S11337309FEF2CC022FF16C046815781248135811A
S11337404217530744F4A081B1819D012F5F3F4F7D
S1133750208331838C93268137812F5F3F4F2683CB
S1133760378314C08B01EC01FB010084F185E02D4B
S11337701995892BE1F6D80116968D919C9117978E
S1133780019616968D939C931797CE01DF91CF9156
S11337901F910F9108950F931F93CF93DF93CDB78C
S11337A0DEB72E97CDBFDEBF0E891F89888D998D18
S11337B026E02C8309831A8397FF02C080E090E8F7
S11337C001978D839E83AE01445E5F4F6A8D7B8D2E
S11337D0CE0101960E946D154D815E8157FD0AC090
S11337E02F813885421753070CF49A01F801E20F30
S11337F0F31F10822E96CDBFDEBFDF91CF911F91B4
S11338000F910895FA01AA27283051F1203181F14E
S1133810E8946F936E7F6E5F7F4F8F4F9F4FAF4FD4
S1133820B1E03ED0B4E03CD0670F781F891F9A1FE7
S1133830A11D680F791F8A1F911DA11D6A0F711D9B
S1133840811D911DA11D20D009F468943F912AE0A7
S1133850269F11243019305D3193DEF6CF0108958F
S1133860462F4770405D4193B3E00FD0C9F7F6CFC0
S1133870462F4F70405D4A3318F0495D31FD405288
S1133880419302D0A9F7EACFB4E0A695979587951E
S113389077956795BA95C9F70097610571050895FD
S11338A09B01AC010A2E06945795479537952795A9
S11338B0BA95C9F7620F731F841F951FA01D089541
S11338C09927882708950E946E1CA59F900DB49F88
S11338D0900DA49F800D911D11240895A29FB00105
S11338E0B39FC001A39F700D811D1124911DB29F30
S11138F0700D811D1124911D0895F894FFCFD1
S11338FE010000003FB4C8ACC225640D00310D00B8
S113390E320D0032303137303631300D0031323332
S113391E3435360D003235300D003334300D000998
S113392E4325643A202575202830782530347829AB
S113393E095125753A2025640D0A004572726F727D
S113394E3A20636F756C64206E6F742072656164C7
S113395E20666C6F772073656E736F722050524FB2
S113396E4D2E004572726F723A20636F756C64202F
S113397E6E6F7420726573657420666C6F77207336
S113398E656E736F722E004572726F723A20636F9A
S113399E756C64206E6F7420636F6E76657274201E
S11339AE707265737375726520696E20666C6F77BD
S11339BE2073656E736F722E004572726F723A20A9
S11339CE636F756C64206E6F7420636F6E766572B0
S11339DE742074656D706572617475726520696E9C
S11339EE20666C6F772073656E736F722E0045724E
S11339FE726F723A20636F756C64206E6F742072EE
S1133A0E6561642041444320696E20666C6F7720A3
S1133A1E73656E736F722E000850237365703D2CA0
S1133A2E0D0A54696D65205B6D735D2C5072657360
S1133A3E73757265205B7073695D2C54656D70656A
S1133A4E726174757265205B6F435D2C4F32205B1F
S1133A5E636F756E74735D0D0A00252E33662C2507
S1133A6E2E34662C252E32662C25640D0A00253044
S1133A7E34643B253033643B2530322E32663B258D
S1133A8E30312E32663B2530312E32663B253032B4
S1133A9E2E32663B2530322E32663B2530312E32A5
S10F3AAE660D0A008300FD000C000400FB
S9030000FC
