S010000065766F675F6F6E652E73726563C2
S11300000C94C0010C94E6010C94E6010C94E601F6
S11300100C94E6010C94E6010C94E6010C94E601C0
S11300200C94E6010C94E6010C94E6010C94E601B0
S11300300C94E6010C94E6010C9430070C94E60150
S11300400C94E6010C94E6010C94E6010C94E60190
S11300500C94E6010C94E6010C94E6010C94E60180
S11300600C94E6010C94E6010C94E6010C94E60170
S11300700C9421080C94E6010C94E6010C94E6011E
S11300800C94E6010C94E6010C94E6010C94E60150
S11300900C94E6010C94E6010C94E6010C94E60140
S11300A00C94E6010C94E6010C94E6010C94E60130
S11300B00C94E6010C94E6010C94E6010C94E60120
S11300C00C94E6010C94E6010C94E6010C94E60110
S11300D00C94E6010C94E6010C94E6010C94E60100
S11300E00C94E6010C94E6010C94A2080C94E6012D
S11300F00C94E6010C94E6010C94E6010C94E601E0
S11301000C94E6010C94E6010C94E6010C94E601CF
S11301100C94E6010C94E6010C94E6010C94E801BD
S11301200C9406020C9424020C9442020C94E601F2
S11301300C94E6010C94E6010C94E6010C94E6019F
S11301400C94E6010C94E6010C94E6010C94E6018F
S11301500C94E6010C94E6010C94E6010C94E6017F
S11301600C94E6010C94E6010C94E6010C94E6016F
S11301700C94E6010C94E6010C94E6010C94E6015F
S11301800C94E6010C94E6010C94E6010C94E6014F
S11301900C94E6010C94E6010C94E6010C94E6013F
S11301A00C94E6010C94E6010C94E6010C94E6012F
S11301B00C94E6010C94E6010C94E6010C94E6011F
S11301C00C94E6010C94E6010C94E6010C94E6010F
S11301D00C94E6010C94E6010C94E6010C94E601FF
S11301E00C94E6010C94E6010C94E6010C94E601EF
S11301F00C94E6010C94E6010C94E6010763423684
S1130200B79BD8A71A39685618AEBAAB558C1D3CA3
S1130210B7CC5763BD6DEDFD753EF6177231BF0067
S11302200000803F08000000BE922449123EABAAA1
S1130230AA2ABECDCCCC4C3E00000080BEABAAAAFC
S1130240AA3E00000000BF000000803F0000000044
S113025000084178D3BB4387D1133D190E3CC3BD7D
S11302604282AD2B3E68EC8276BED98FE1A93E4C2A
S113027080EFFFBE01C4FF7F3F00000000006E61FD
S11302806E00696E660000407A10F35A00A0724E48
S113029018090010A5D4E80000E87648170000E427
S11302A00B54020000CA9A3B000000E1F50500006F
S11302B080969800000040420F000000A0860100D4
S11302C00000102700000000E803000000006400A4
S11302D0000000000A00000000000100000000000F
S11302E02C76D888DC674F0823DFC1DFAE59E1B133
S11302F0B796E5E3E453C63AE651997696E8E6C242
S11303008426EB898C9B62ED407C6FFCEFBC9C9F48
S113031040F2BAA56FA5F490055A2AF75C936B6C6A
S1130320F9676DC11BFCE0E40D47FEF520E6B5005E
S1130330D0ED902E0300943577050080841E0800CC
S113034000204E0A000000C80C333333330F986E7C
S113035012831141EF8D2114893BE65516CFFEE639
S1130360DB18D1844B381BF77C1D901DA4BBE424FF
S1130370203284725E228100C9F124ECA1E53D277C
S113038011241FBECFEFCDBFDFE3DEBF00E00CBF03
S113039018BE19BE1ABE1BBE12E2A0E0B0E2EEE81F
S11303A0F2E300E00BBF02C007900D92A834B1073E
S11303B0D9F71BBE22E2A8E4B2E201C01D92A03A22
S11303C0B207E1F70E94580E0C9445190C940000F2
S11303D01F920F920FB60F92112408B60F9218BEF7
S11303E08F939F9381E08093532280911002909188
S11303F0110280934E2290934F229F918F910F90E0
S113040008BE0F900FBE0F901F9018951F920F9269
S11304100FB60F92112408B60F9218BE8F939F93B4
S113042081E0809352228091120290911302809372
S11304304C2290934D229F918F910F9008BE0F9064
S11304400FBE0F901F9018951F920F920FB60F9228
S1130450112408B60F9218BE8F939F9381E0809366
S11304605122809114029091150280934A22909314
S11304704B229F918F910F9008BE0F900FBE0F904B
S11304801F9018951F920F920FB60F92112408B661
S11304900F9218BE8F939F9381E080935022809196
S11304A016029091170280934822909349229F91BB
S11304B08F910F9008BE0F900FBE0F901F9018954C
S11304C0613061F028F0623079F0633099F008957A
S11304D01092532280910002846011C01092522223
S11304E08091000288600BC010925122809100021A
S11304F0806105C010925022809100028062809336
S113050000020895613059F028F0623069F06330D8
S113051081F00895809153228823E1F30895809116
S113052052228823E1F30895809151228823E1F334
S11305300895809150228823E1F308950F931F9327
S1130540CF938C01C62F0E9460026C2FC8010E94B9
S11305508202C13079F048F0C23089F0C330A1F48E
S1130560809116029091170211C08091100290910F
S113057011020CC0809112029091130207C0809165
S113058014029091150202C080E090E0CF911F9177
S11305900F91089521E0FC012183E0E0F2E08081E5
S11305A0816080830895FC0165876093040214824E
S11305B0A1E0B2E08C918F7E8C9381E0828BA0E2EB
S11305C0B2E08C918C7F81608C93168AA1E2B2E0B8
S11305D08C9187788C9342A3A2E2B2E08C918C7FB9
S11305E0482B4C93CF010C94CA02CF92DF92FF9216
S11305F00F931F93CF93DF93CDB7DEB7A897CDBFEB
S1130600DEBF8C01F62E88E2E4E2F0E2DE01119610
S113061001900D928A95E1F740E0F80163818481AD
S113062095810E941108F801848195810E949F0799
S1130630F8012481358181112EC06F2DC9010E94DA
S11306401D0841E063E0F801848195810E94DC0784
S1130650F801848195810E949F07F80124813581E6
S1130660882349F0BE016F5F7F4FC9010E94A6072E
S113067080E090E061C041E0F8016381C9010E941B
S11306801108F801848195810E949F07F801248153
S11306903581882361F041E063E0C9010E94DC07F1
S11306A0BE016F5F7F4FF80184819581DFCF60E0E9
S11306B0C9010E94D707C82ED12CDC2CCC2440E0E1
S11306C062E0F801848195810E94DC0761E0F80111
S11306D0848195810E94D707C82A6F2D70E0605AE3
S11306E0710977FF02C06F5F7F4F75956795F801B9
S11306F0E60FF71F818D1F928F937F936F93DF9285
S1130700CF92DF92CF927F936F9388E090E29F9392
S11307108F931F9280E48F9380E692E29F938F934E
S11307200E94B01860E672E2F801868197810E9407
S1130730BF08CDBFDEBFC601A896CDBFDEBFDF9127
S1130740CF911F910F91FF90DF90CF9008950F9359
S11307501F93CF93DF93CDB7DEB7A497CDBFDEBF92
S11307608C0184E2E7E6F0E2DE01119601900D923D
S11307708A95E1F76CE470E2F801868197810E9422
S1130780BF0840E0F8016381848195810E941108CB
S1130790F801848195810E949F07F80124813581A5
S11307A0882331F041E063E0C9010E94DC0712C0F4
S11307B06EE1C9010E941D0841E063E0F8018481F3
S11307C095810E94DC07F801848195810E949F072E
S11307D0882349F0BE016F5F7F4FF80184819581C2
S11307E00E94A6070BC083E090E00E946D096BEAAB
S11307F070E2F801868197810E94BF08A496CDBF5C
S1130800DEBFDF91CF911F910F910895CF93DF93B6
S1130810EC016BE870E28E819F810E94BF0862EA5E
S1130820CE010E94F5028887998764EACE010E946E
S1130830F5028A879B8766EACE010E94F5028C87BF
S11308409D8768EACE010E94F5028E879F876AEA37
S1130850CE010E94F502888B998B6CEACE010E942E
S1130860F5028A8B9B8B6AEA70E28E819F81DF910D
S1130870CF910C94BF086F927F928F92EF92FF9268
S11308800F931F93CF93DF93EC013A01862E6EE012
S11308906C8B50E15D8B87E08E8B35E03F8B888FCE
S11308A095E1998F6A8F5B8F8C8F3D8F8E8F9F8F91
S11308B0688279828A822B830C831D83EE82FF8275
S11308C0CE010E94A703CE01DF91CF911F910F911A
S11308D0FF90EF908F907F906F900C9406040F938D
S11308E01F93CF93DF93CDB7DEB7E297CDBFDEBFC3
S11308F08C0182E3E3EBF0E2DE01119601900D92AC
S11309008A95E1F740E0F8016381848195810E9432
S11309101108F801848195810E949F07F8012481C0
S11309203581882331F041E063E0C9010E94DC078E
S113093014C0F8016081605CC9010E941D0841E097
S113094063E0F801848195810E94DC07F8018481C9
S113095095810E949F07882349F0BE016F5F7F4FF6
S1130960F801848195810E94A60705C0F801818160
S113097092810E947C09E296CDBFDEBFDF91CF91C8
S11309801F910F9108950F931F93CF93DF93CDB7CA
S1130990DEB7E597CDBFDEBF8C0185E3E5EEF0E27F
S11309A0DE01119601900D928A95E1F740E0F8017D
S11309B06381848195810E941108F8018481958165
S11309C00E949F07F80124813581882331F041E09A
S11309D063E0C9010E94DC0714C0F8016081605B18
S11309E0C9010E941D0841E063E0F80184819581FA
S11309F00E94DC07F801848195810E949F07882367
S1130A0049F0BE016F5F7F4FF801848195810E9498
S1130A10A60705C0F801818192810E947C09E596B0
S1130A20CDBFDEBFDF91CF911F910F910895EF925B
S1130A30FF920F931F93CF93DF93CDB7DEB7AA979F
S1130A40CDBFDEBF8C018AE2EAE1F1E2DE0111965C
S1130A5001900D928A95E1F740E0F8016381848169
S1130A6095810E941108F801848195810E949F0755
S1130A70F8012481358181112FC060E0C9010E94F1
S1130A801D0841E063E0F801848195810E94DC0740
S1130A90F801848195810E949F07F80124813581A2
S1130AA0882351F0BE016F5F7F4FC9010E94A607E2
S1130AB060E070E0CB014AC041E0F8016381C90104
S1130AC00E941108F801848195810E949F07F80112
S1130AD024813581882361F041E063E0C9010E94EB
S1130AE0DC07BE016F5F7F4FF80184819581DECF03
S1130AF060E0C9010E94D707E82E40E062E0F801F7
S1130B00848195810E94DC0760E0F80184819581ED
S1130B100E94D707F82E40E062E0F80184819581B5
S1130B200E94DC0761E0F801848195810E94D70767
S1130B304F2D50E060E070E0762F652F542F44274E
S1130B406E298A019B01082BC901B801AA96CDBF61
S1130B50DEBFDF91CF911F910F91FF90EF90089529
S1130B602F923F924F925F926F927F928F929F92B9
S1130B70AF92BF92CF92DF92EF92FF920F931F93A7
S1130B80CF93DF93CDB7DEB76A97CDBFDEBF1C012D
S1130B900E946F04C1010E9417054B015C01C10151
S1130BA00E94C304C1010E9417052B013C01F101FD
S1130BB0608D70E080E090E00E94F0109B01AC0139
S1130BC060E070E080E090E40E9414126B017C010C
S1130BD0C301B2010E94F0102B013C01F1016089B4
S1130BE0718980E090E00E94F010A70196010E94B4
S1130BF0A7119B01AC01C301B2010E9411106B014A
S1130C007C01F101618D70E080E090E00E94F010C1
S1130C109B01AC0160E070E080E090E40E9414125B
S1130C202B013C01F101658970E080E090E00E94B5
S1130C30F0109B01AC0160E070E080E090E40E9461
S1130C40141269877A878B879C87F101678970E022
S1130C5080E090E00E94F0109B01AC0160E070E045
S1130C6080E090E40E9414126D877E878F87988BB2
S1130C70F101648970E080E090E00E94F0109B0133
S1130C80AC0160E070E080E090E40E941412698B93
S1130C907A8B8B8B9C8BF101668970E080E090E00D
S1130CA00E94F0109B01AC0160E070E080E090E4F1
S1130CB00E9414126D8B7E8B8F8B988FF101628949
S1130CC0738980E090E00E94F010A70196010E94D1
S1130CD0A711A30192010E947E1020E030E04AEFA8
S1130CE054E40E94121020E030E048EC52E40E94E8
S1130CF07E10162F072F898F9A8FF10164857585D1
S1130D0080E090E00E94F010A70196010E94A711D4
S1130D102D893E894F89588D0E947E102B013C01FC
S1130D20F1016085718580E090E00E94F0102989CE
S1130D303A894B895C890E94A7119B01AC01C301CC
S1130D40B2010E9412102B013C01C501B4010E94A2
S1130D50F0109B01AC01C301B2010E94A71120E075
S1130D6030E040E055E30E94A7114B015C01F10122
S1130D706685778580E090E00E94F010A7019601D7
S1130D800E94A7112D853E854F8558890E947E10AB
S1130D906B017C01F1016285738580E090E00E9423
S1130DA0F01029853A854B855C850E94A7119B012B
S1130DB0AC01C701B6010E9412109B01AC01C50130
S1130DC0B4010E94111020E030E040E058E30E949A
S1130DD0A71120E030E048EC52E40E947E109B0111
S1130DE0AB01BC0149835A836B837C83812F902F91
S1130DF0A98DBA8D8D839E83AF83B8873A814B8149
S1130E005C81612F7E818F8198856A96CDBFDEBF1C
S1130E10DF91CF911F910F91FF90EF90DF90CF90D2
S1130E20BF90AF909F908F907F906F905F904F9006
S1130E303F902F900895FC0198E090934106909381
S1130E4046061082089528E02093450621E0FC011F
S1130E502083089528E020934606FC01108208951B
S1130E601F920F920FB60F92112408B60F9218BE5C
S1130E7009B60F9219BE0BB60F921BBE2F933F9368
S1130E804F935F936F937F938F939F93AF93BF938E
S1130E90EF93FF93609154227091552280915622D2
S1130EA090915722209158223091592240915A22F0
S1130EB050915B220E941210609358227093592221
S1130EC080935A2290935B22FF91EF91BF91AF914F
S1130ED09F918F917F916F915F914F913F912F914E
S1130EE00F900BBE0F9009BE0F9008BE0F900FBE5F
S1130EF00F901F901895FC016787E6E0F8E0808169
S1130F008C7F682B608308950F93FC01608360934A
S1130F100008209354223093552240935622509334
S1130F205722602F0F910C947B078091A40487FFB4
S1130F30FCCF08958091A40486FFFCCF089590917E
S1130F40A4049C7181E009F480E00895089521E0EF
S1130F50FC012583E1EAF4E08081886080830895C0
S1130F6021E0FC012087E2EAF4E080818160808353
S1130F700895FC016683E2EAF4E0808194E0699FCD
S1130F80B0011124837F682B60830895FC0161877D
S1130F90662319F0613029F008958091A3048B7FB2
S1130FA003C08091A30484608093A30408950E94E5
S1130FB0C6078091A70408951F93CF93DF93EC0194
S1130FC0162F642F0E94C6078091A3048C7F812B67
S1130FD08093A304123031F4CE01DF91CF911F919D
S1130FE00C949507DF91CF911F910895E4EAF4E002
S1130FF08081816080830895CF93DF93EC016A87B9
S11310004E836093A504642F0E94B907CE010E9409
S1131010B007CE010E94A707CE01DF91CF910C94B7
S1131020F607660F413029F461606093A6040C94BE
S113103095076093A6040C949A076093A7040C94F4
S11310409A071F920F920FB60F92112408B60F92AF
S113105018BE8F9381E080935D228091B0088093C5
S11310605C228F910F9008BE0F900FBE0F901F90BF
S11310701895FC016083E3EBF8E0808190E1699FBF
S1131080B00111248F7C682B6083089521E0FC015A
S11310902383E4EBF8E0808180618083089521E07C
S11310A0FC012483E4EBF8E0808188608083089568
S11310B021E0FC012583E4EBF8E0808184608083F7
S11310C00895FC01638774876093B608E7EBF8E042
S11310D080818F70782B70830895FC016587E7EB1E
S11310E0F8E0808190E1699FB00111248F70682B32
S11310F060830895FF920F931F93CF93DF93EC01C6
S1131100F62E072F122FBA010E9461086F2DCE010F
S11311100E946D08002319F0CE010E945808CE01E8
S11311200E944608CE010E944F08612FCE010E9402
S1131130390880E880934106DF91CF911F910F9188
S1131140FF9008951F920F920FB60F92112408B6C4
S11311500F9218BE8F9381E080935F228091A00A42
S113116080935E228F910F9008BE0F900FBE0F9058
S11311701F9018958091A10A85FFFCCF0895EF92E6
S1131180FF920F931F93CF937C018B01F801C191C0
S11311908F01CC2331F0C7010E94BA08C093A00A82
S11311A0F5CFCF911F910F91FF90EF900895FC011F
S11311B06083E3EAFAE0808190E1699FB001112441
S11311C08F7C682B6083089521E0FC012383E4EA8B
S11311D0FAE0808180618083089521E0FC0124830A
S11311E0E4EAFAE0808188608083089521E0FC01CC
S11311F02583E4EAFAE08081846080830895FC0119
S1131200638774876093A60AE7EAFAE080818F70A7
S1131210782B70830895FC016587E7EAFAE0808102
S113122090E1699FB00111248F70682B6083089549
S1131230FF920F931F93CF93DF93EC01F62E072FAA
S1131240122FBA010E94FF086F2DCE010E940B09D4
S1131250002319F0CE010E94F608CE010E94E40892
S1131260CE010E94ED08612FCE010E94D70888E0CC
S113127080938106DF91CF911F910F91FF90089584
S11312809091500041E050E0082E02C0440F551FD9
S11312900A94E2F7942B909350002091510030E08F
S11312A024233523232BC9F398ED94BF8093400066
S11312B00895E2EAF0E04081815021E030E0B90194
S11312C002C0660F771F8A95E2F7CB01842B8083D7
S11312D008958FB780688FBF089520E030E0281705
S11312E0390749F0EFE3FFE13197F1F700C000005F
S11312F02F5F3F4FF4CF089520E030E028173907DF
S113130039F04AE04A95F1F700C02F5F3F4FF6CF1E
S11313100895AF92BF92CF92DF92EF92FF920F9314
S11313201F93CF93DF935C018B01C0E0D0E0C12C0D
S1131330D12C7601CA15DB0551F060E0C8010E948A
S11313409E02C80ED91EE11CF11C2196F3CFC701E1
S1131350B6010E94F0106B017C01BE0180E090E0B8
S11313600E94F0109B01AC01C701B6010E947E10DF
S1131370DF91CF911F910F91FF90EF90DF90CF906D
S1131380BF90AF9008957F928F929F92AF92BF9239
S1131390CF92DF92EF92FF920F931F93CF93DF933D
S11313A0CDB7DEB72897CDBFDEBF4C015B01890105
S11313B067E471E2C9010E94BF0886E8C82E81E291
S11313C0D82E90E4792E20E6E22E22E2F22E8091AD
S11313D05F2281113DC0C4010E94B00529833A8374
S11313E04B835C836D837E838F83988760E0C50124
S11313F00E949E02409158225091592260915A2293
S113140070915B229F938F9388858F938F818F93A5
S11314108E818F938D818F938C818F938B818F930A
S11314208A818F9389818F937F936F935F934F9377
S1131430DF92CF921F927F92FF92EF920E94B01898
S113144060E672E2C8010E94BF08CDBFDEBFBFCF15
S113145010925F222896CDBFDEBFDF91CF911F91FE
S11314600F91FF90EF90DF90CF90BF90AF909F903F
S11314708F907F9008952F923F924F925F926F9238
S11314807F928F929F92AF92BF92CF92DF92EF9210
S1131490FF920F931F93CF93DF93CDB7DEB7A0973F
S11314A0CDBFDEBF29873A874B875C876D877E87F0
S11314B08F87988B0F8F18A3E98EFA8ECB8EDC8ED4
S11314C08D8E9E8E2EA83FA888AC99AC00E110E0CA
S11314D0198A1A8A1B8A1C8A898D9A8D0E94B005E2
S11314E029833A834B835C836D837E838F839887C0
S11314F020E030E040E85DE369817A818B819C8162
S11315000E94A7119B01AC0169897A898B899C8906
S11315100E941210698B7A8B8B8B9C8B0150110962
S1131520D9F66AE971E28D8D9E8D0E94BF084090C4
S113153058225090592260905A2270905B228091D8
S1131540582290915922A0915A22B0915B228D8BFE
S11315509E8BAF8BB88F8B8D9C8D0E94230710E0E0
S113156000E0B12CA12C80915F228111AFC0C0900A
S11315705822D0905922E0905A22F0905B22D40154
S113158011968C91A3019201882371F0C701B601D1
S11315900E94111020E030E44CE155E40E94A211B5
S11315A018160CF4B2C00DC0C701B6010E94111088
S11315B020E030E44CE155E40E94A21118160CF42A
S11315C0A8C02D893E894F89588DC701B6010E9454
S11315D0111020E030E44CE955E40E94A2111816E1
S11315E0DCF56F8D78A180E094E00E948909AF92C8
S11315F0BF920F931F9329853A854B855C850E9482
S1131600A7112D853E854F8558890E9412109F93FE
S11316108F937F936F93FF92EF92DF92CF92ECEBD5
S1131620F1E2FF93EF931F9280E48F93A0E6B2E27E
S1131630BF93AF930E94B01860E672E28D8D9E8DC9
S11316400E94BF08CDBFDEBFCD8ADE8AEF8AF88E46
S113165010E000E0B12CA12C898D9A8D0E94B00578
S113166029833A834B835C836D837E838F8398873E
S113167029893A894B895C8969817A818B819C812A
S11316800E9411106B017C010E946A129B01AC0143
S1131690D801F5016B2F702F8F2F9A2D0E941210F5
S11316A0162F072FB82EA92E2AE939E949E95DE357
S11316B0C701B6010E94A211181624F4C1010E94A8
S11316C0041051CFC1010E940B104DCF8B8D9C8D06
S11316D00E942A07C1010E940B10C401A096CDBF2D
S11316E0DEBFDF91CF911F910F91FF90EF90DF90BC
S11316F0CF90BF90AF909F908F907F906F905F90AE
S11317004F903F902F900C940B10C4010E940B102B
S113171003C0C4010E9404102601370152CF2F9246
S11317203F924F925F926F927F928F929F92AF926D
S1131730BF92CF92DF92EF92FF920F931F93CF93BA
S1131740DF93CDB7DEB76997CDBFDEBF8C8B9D8BA2
S11317506E8B7F8B288F398F5701460180915822D9
S113176090915922A0915A22B0915B2289879A873D
S1131770AB87BC87209058223090592240905A223F
S113178050905B22CB010E942307C8010E940410E1
S1131790C7010E940B10C6010E940B101B8A1D86F4
S11317A01E861F86612C188A198A1A8A712CC09089
S11317B05822D0905922E0905A22F0905B22D40112
S11317C011968C9129853A854B855C85882371F027
S11317D0C701B6010E94111020E030E44CE155E449
S11317E00E94A21118160CF43FC00CC0C701B60128
S11317F00E94111020E030E44CE155E40E94A21153
S11318001816B4F1F80181818823D1F1A201910164
S1131810C701B6010E94111020E030E44CE955E400
S11318200E94A211181664F56C897D8980E094E009
S11318300E94890920E030E040E05EE30E94A711A5
S11318409B01AC01B889A989FA896B2F7A2F8F2F54
S1131850972D0E941210688B798B8A8B792EC80180
S11318600E940B10C501EDC0C4010E940B1003C0FF
S1131870C4010E940410C986DA86EB86FC86C2CFB6
S1131880F50181818111ACC09B89983009F08FCF1B
S11318908E899F890E942A07C8010E940B10C501E6
S11318A00E940B10C4010E940B106F92FF85FF93DE
S11318B08E858F939D859F937F92AA89AF93B989D3
S11318C0BF93E889EF938DEC91E29F938F931F92DE
S11318D080E4C82ECF9290E6E92E92E2F92EFF9290
S11318E0EF920E94B018B701888D998D0E94BF08AD
S11318F07D856E859F85272F362F492F562D488845
S113190059886A88B201862D972D0E9411109B0177
S1131910AC0168E774E18EE790E40E947E10A62E85
S1131920D72E8C01762F272F3D2D402F512F642D3C
S1131930752D862D972D0E94A7119B01AC016FE890
S113194072EC87EA91E40E941110762E872E982E6D
S1131950B92E9F938F937F936F931F930F93DF926F
S1131960AF928EEF91E29F938F931F92CF92FF924B
S1131970EF920E94B018B701888D998D0E94BF081C
S11319802A2D8A2D9D2DA02FB12F89839A83AB8375
S1131990BC83672D872D982DA92DBB2D8D839E8308
S11319A0AF83B8873A814B815C817E818F81988532
S11319B0CDBFDEBF6996CDBFDEBFDF91CF911F9152
S11319C00F91FF90EF90DF90CF90BF90AF909F90DA
S11319D08F907F906F905F904F903F902F900895DD
S11319E0A2019101C701B6010E94111020E030E468
S11319F04CE955E40E94A21118160CF045CF6C89ED
S1131A007D8980E094E00E94890920E030E040E094
S1131A105EE30E94A7119B01AC01BD85AE85FF85E5
S1131A206B2F7A2F8F2F962D0E9412106D877E8731
S1131A308F87692EFB89FF5FFB8BC5010E940B100A
S1131A40C8010E940410160127011ECF2F923F9255
S1131A504F925F926F927F928F929F92AF92BF92BA
S1131A60CF92DF92EF92FF920F931F93CF93DF9366
S1131A70CDB7DEB76797CDBFDEBF6C8B7D8B8E8B0A
S1131A809F8B4A8B5B8B1901EE86FF86C88AD98AA5
S1131A90409058225090592260905A2270905B22B4
S1131AA08091582290915922A0915A22B0915B22A0
S1131AB08A879B87AC87BD87C9010E9423078889D1
S1131AC099890E940410C4010E940B10198610E029
S1131AD000E0B12CA12CC0905822D0905922E09063
S1131AE05A22F0905B22D40111968C91A3019201A9
S1131AF0882371F0C701B6010E94111020E030E480
S1131B004CE155E40E94A21118160CF4C7C00DC094
S1131B10C701B6010E94111020E030E44CE155E405
S1131B200E94A21118160CF4BDC02A853B854C8571
S1131B305D85C701B6010E94111020E030E44CE934
S1131B4055E40E94A21118160CF486C099859830A9
S1131B5008F4C1CFC1010E942A07888999890E948B
S1131B600B10C4010E940B10AF92BF920F931F93EE
S1131B7086E292E29F938F931F9280E4782E7F9265
S1131B8090E6E92E92E2F92EFF92EF920E94B018AD
S1131B90B7018E859F850E94BF088C889D88CE885A
S1131BA0DF889401A601D801F5016B2F702F8F2FC8
S1131BB09A2D0E94A7119B01AC016FE872EC87EA91
S1131BC091E40E9411105B018C011F938F93BF92CB
S1131BD06F93DF92CF929F928F928EEF91E29F93B9
S1131BE08F931F927F92FF92EF920E94B018B701D9
S1131BF08E859F850E94BF08282D882D992DAC2D98
S1131C00BD2D89839A83AB83BC836A2D8A2D9B2D3A
S1131C10A02FB12F8D839E83AF83B8873A814B81E8
S1131C205C817E818F819885CDBFDEBF6796CDBFF5
S1131C30DEBFDF91CF911F910F91FF90EF90DF9066
S1131C40CF90BF90AF909F908F907F906F905F9058
S1131C504F903F902F9008956A897B8980E094E0AB
S1131C600E94890920E030E040E05EE30E94A71171
S1131C709B01AC01D801F5016B2F702F8F2F9A2D8A
S1131C800E941210162F072FB82EA92EB985BF5FF8
S1131C90B987CA86DB86EC86FD8658CFC4010E94CC
S1131CA00B1003C0C4010E940410260137013DCF6C
S1131CB0CF93DF93CDB7DEB7C25AD109CDBFDEBF14
S1131CC081E00E94400940913F225091402260915E
S1131CD041227091422222E0CE0185599F4F0E94F9
S1131CE018094091432250914422609145227091F9
S1131CF0462222E0CE01835A9F4F0E947A0882E056
S1131D000E94590983E00E9459090E94690903E06D
S1131D102FE632E143E050E461E0CE01895B9F4F5E
S1131D200E94840741E06BE9CE0187589F4F0E94CF
S1131D30FC0743E067E0CE0101960E94D302809144
S1131D40442190914521A09146219E0125593F4F60
S1131D5079018E0107581F4F26E7AC016A2FCE0187
S1131D6087960E943B04CE018E569F4FCD56DF4F7F
S1131D7088839983C359D0400E941B07FE01E05712
S1131D80FF4FCB56DF4FE883F983C559D04062E05B
S1131D90CF010E94FB0F9E0122573F4FC956DF4FD0
S1131DA028833983C759D04064E0C9010E94FB0FDE
S1131DB0CE0184579F4FC756DF4F88839983C959F3
S1131DC0D04060E10E94FB0F3E0194E8690E711C53
S1131DD088E0E0E0F0E2D30101900D928A95E1F70A
S1131DE081EE282E8AE7382E84ED482E8EE3582E75
S1131DF0C756DF4FE881C959D040C556DF4FE88345
S1131E00CB59D040C656DF4FF881CA59D040C4568A
S1131E10DF4FF883CC59D040C956DF4F2881C759CA
S1131E20D040C356DF4F2883CD59D040C856DF4F2A
S1131E303881C859D040C256DF4F3883CE59D0407C
S1131E40CD56DF4F8881C359D040C156DF4F8883B8
S1131E50CF59D040CC56DF4F9881C459D040C0569A
S1131E60DF4F9883C05AD040CB56DF4FE881C55925
S1131E70D040CF55DF4FE883C15AD040CA56DF4F18
S1131E80F881C659D040CE55DF4FF883C25AD040AE
S1131E9080915F228823E1F310925F2280915E2279
S1131EA0813671F49E0125593F4FAE01495B5F4F66
S1131EB0BE016F5F7F4FCE0187960E94C309E8CFB2
S1131EC0823609F045C0F301208231824282538276
S1131ED0C456DF4FF881CC59D040FF93C556DF4F2D
S1131EE02881CB59D0402F93CE55DF4F3881C25A29
S1131EF0D0403F93CF55DF4F8881C15AD0408F9354
S1131F00FE01E559FF4F4F019E01295B3F4F5901E7
S1131F10C156DF4FC880CF59D040C056DF4FD8805C
S1131F20C05AD040CE0187967C018E010F5F1F4FAF
S1131F30F3012081318142815381648175818681DD
S1131F4097810E943B0A0F900F900F900F90A0CFA3
S1131F508336C1F49E0124573F4F6901CE01825755
S1131F609F4F7C018E0100571F4F21523109AE0152
S1131F70495B5F4FBE016E567F4F8D5891090E9499
S1131F808F0B2BC0843609F083CFC556DF4F888072
S1131F90CB59D040C456DF4F9880CC59D040C3565B
S1131FA0DF4FA880CD59D040C256DF4FB880CE59FC
S1131FB0D0409E0120573F4F6901CE0185599F4F64
S1131FC07C018E01095B1F4F2E5F3F4FAE014F5FB7
S1131FD05F4FC201B1010E94260DF30120833183BA
S1131FE042835383648375838683978320803180FF
S1131FF0428053804DCFFC01608360934106808111
S11320008093460611820895FC01208120934506A1
S113201021E021830895FC0120812093460611824A
S113202008955058BB27AA270E9429100C946811C0
S11320300E945A1138F00E94611120F039F49F3F38
S113204019F426F40C9457110EF4E095E7FB0C9464
S11320505111E92F0E94791158F3BA1762077307D7
S11320608407950720F079F4A6F50C949B110EF4DF
S1132070E0950B2EBA2FA02D0B01B90190010C0194
S1132080CA01A0011124FF27591B99F0593F50F4AC
S1132090503E68F11A16F040A22F232F342F442704
S11320A0585FF3CF469537952795A795F0405395FC
S11320B0C9F77EF41F16BA0B620B730B840BBAF0CC
S11320C09150A1F0FF0FBB1F661F771F881FC2F737
S11320D00EC0BA0F621F731F841F48F4879577954B
S11320E06795B795F7959E3F08F0B0CF9395880F05
S11320F008F09927EE0F9795879508950E949210FE
S11321000C9468110E94611158F00E945A1140F019
S113211029F45F3F29F00C94511151110C949C1136
S11321200C9457110E94791168F39923B1F3552344
S113213091F3951B550BBB27AA27621773078407D6
S113214038F09F5F5F4F220F331F441FAA1FA9F36C
S113215035D00E2E3AF0E0E832D091505040E6955A
S1132160001CCAF72BD0FE2F29D0660F771F881FBB
S1132170BB1F261737074807AB07B0E809F0BB0BAE
S1132180802DBF01FF2793585F4F3AF09E3F5105C2
S113219078F00C9451110C949C115F3FE4F3983E39
S11321A0D4F3869577956795B795F7959F5FC9F7AB
S11321B0880F911D9695879597F90895E1E0660F2C
S11321C0771F881FBB1F621773078407BA0720F0A5
S11321D0621B730B840BBA0BEE1F88F7E09508950E
S11321E0E89409C097FB3EF49095809570956195AD
S11321F07F4F8F4F9F4F9923A9F0F92F96E9BB2763
S11322009395F695879577956795B795F111F8CFDE
S1132210FAF4BB0F11F460FF1BC06F5F7F4F8F4F49
S11322209F4F16C0882311F096E911C0772321F03F
S11322309EE8872F762F05C0662371F096E8862FD7
S113224070E060E02AF09A95660F771F881FDAF72E
S1132250880F9695879597F90895990F0008550F5B
S1132260AA0BE0E8FEEF16161706E807F907C0F018
S113227012161306E407F50798F0621B730B840B20
S1132280950B39F40A2661F0232B242B252B21F4FA
S113229008950A2609F4A140A6958FEF811D811D9A
S11322A0089597F99F6780E870E060E008959FEFD4
S11322B080EC089500240A941616170618060906D9
S11322C0089500240A9412161306140605060895A8
S11322D0092E0394000C11F4882352F0BB0F40F430
S11322E0BF2B11F460FF04C06F5F7F4F8F4F9F4F70
S11322F0089557FD9058440F551F59F05F3F71F0F2
S11323004795880F97FB991F61F09F3F79F0879558
S11323100895121613061406551FF2CF4695F1DFE1
S113232008C0161617061806991FF1CF8695710571
S1132330610508940895E894BB2766277727CB01A5
S113234097F908950E942D1108F48FEF08950E94C3
S1132350BA110C9468110E945A1138F00E9461114C
S113236020F0952311F00C9451110C945711112461
S11323700C949C110E94791170F3959FC1F3950FF1
S113238050E0551F629FF001729FBB27F00DB11DF5
S1132390639FAA27F00DB11DAA1F649F6627B00D85
S11323A0A11D661F829F2227B00DA11D621F739F6E
S11323B0B00DA11D621F839FA00D611D221F749F7C
S11323C03327A00D611D231F849F600D211D822FC3
S11323D0762F6A2F11249F5750409AF0F1F08823EA
S11323E04AF0EE0FFF1FBB1F661F771F881F915017
S11323F05040A9F79E3F510580F00C9451110C9464
S11324009C115F3FE4F3983ED4F3869577956795E6
S1132410B795F795E7959F5FC1F7FE2B880F911D40
S11324209695879597F90895FA01EE0FFF1F309658
S113243021053105A1F16115710561F48038BFE30F
S11324409B0749F168949038810561F08038BFEFAB
S11324509B0741F099234AF5FF3FE105310521052A
S113246019F1E8940894E795D901AA2329F4AB2F2C
S1132470BE2FF85FD0F310C0FF5F70F4A695E0F7AD
S1132480F73950F019F0FF3A38F49F779F930DD045
S11324900F9007FC9058089546F00C94571160E093
S11324A070E080E89FE308954FE79F775F934F9331
S11324B03F932F930E946A132F913F914F915F9105
S11324C00E94A7110C94B21219F416F40C9457112B
S11324D00C94E4120E948111B8F39923C9F3B6F362
S11324E09F57550B87FF0E94F2120024A0E640EA92
S11324F0900180585695979528F4805C660F771F55
S1132500881F20F026173707480730F4621B730B27
S1132510840B202931294A2BA6951794079420254A
S113252031254A2758F7660F771F881F20F0261792
S11325303707480730F4620B730B840B200D311DF1
S1132540411DA09581F7B901842F9158880F969564
S11325508795089529F416F00C9451110C949B114D
S11325600C9457110E948111A8F39638A0F707F82C
S11325700F92E8942BE33AEA48EB5FE70E94BD111F
S11325800F920F920F924DB75EB70F920E94B21343
S1132590ECEFF1E00E94F9124F915F91EF91FF91FE
S11325A0E595EE1FFF1F49F0FE57E0684427EE0F44
S11325B0441FFA95E1F74195550B0E942C130F9097
S11325C007FE0C94201308959F3F31F0915020F49E
S11325D0879577956795B795880F911D96958795FB
S11325E097F9089591505040660F771F881FD2F7CE
S11325F00895DF93CF931F930F93FF92EF92DF928F
S11326007B018C01689406C0DA2EEF010E94BA1196
S1132610FE01E894A5912591359145915591A6F334
S1132620EF010E942910FE019701A801DA9469F7CD
S1132630DF90EF90FF900F911F91CF91DF9108955C
S11326409B01AC0160E070E080E89FE30C947E1095
S11326500C9451110C94E4120E948111D8F3992323
S1132660C9F3940F511DA3F39150504094F059F0C5
S1132670882332F0660F771F881F91505040C1F7AE
S11326809E3F51052CF7880F911D9695879597F9D4
S113269008955F3FACF0983E9CF0BB2786957795F4
S11326A06795B79508F4B1609395C1F7BB0F58F7D8
S11326B011F460FFE8CF6F5F7F4F8F4F9F4FE3CFE1
S11326C00C949C1116F00C94E4120C945711689419
S11326D00C9451110E948111A8F39923C1F3AEF314
S11326E0DF93CF931F930F93FF92C92FDD27882386
S11326F02AF02197660F771F881FDAF720E030E071
S113270040E85FEB9FE3883920F0803E38F0219663
S11327108F770E941210E4E2F2E004C00E941210CB
S1132720E1E5F2E00E94F9128B01BE01EC01FB2EFF
S11327306F5771097595771F880B990B0E94F210DA
S113274028E132E741E35FE30E94BA11AF2D98011B
S1132750AE01FF900F911F91CF91DF910E9429103C
S11327600C946811FA01DC01AA0FBB1F9B01AC0198
S1132770BF5728F4222733274427507820C0B75165
S113278090F4AB2F0024469537952795011CA3950B
S1132790D2F3002071F0220F331F441FB395DAF3F4
S11327A00ED00C94111061307105A0E88A07B94667
S11327B030F49B01AC016627772788279078309600
S11327C021F0208331834283538308952F923F92D3
S11327D04F925F926F927F928F929F92AF92BF922D
S11327E0CF92DF92EF92FF920F931F93CF93DF93D9
S11327F0CDB7DEB76097CDBFDEBF7C011B016A0198
S1132800FC0116821782838181FF44C39E012F5FDE
S11328103F4F3901F7019381F10193FD859193FFB6
S113282081911F01882309F431C3853239F493FD62
S1132830859193FF81911F01853239F4B70190E0AE
S11328400E94741856016501E5CF10E0512C912CBB
S1132850FFE1F915D8F08B3279F038F4803279F051
S11328608332A1F4F92DF0612EC08D3261F08033F2
S113287069F4292D21602DC0392D3260932E892DC4
S11328808460982E2AC0E92DE86015C097FC2DC0FD
S113289020ED280F2A3088F496FE06C03AE0139FF4
S11328A0200D1124122F19C08AE0589E200D1124E6
S11328B0522EE92DE0629E2E10C08E3231F496FC29
S11328C0E5C2F92DF0649F2E08C08C3621F4292D21
S11328D02068922E02C0883641F4F10193FD85915F
S11328E093FF81911F018111B3CF9BEB980F93301C
S11328F020F4992D9061805E07C09BE9980F933076
S113290008F066C1992D9F7E96FF16E09F73992E5D
S1132910853619F49064992E08C0863621F4392F2F
S11329203068932E02C01111115097FE07C01C335A
S113293050F444244394410E27E00BC0183038F07F
S113294027E017E005C027E09CE3492E02C0212FB1
S1132950412C560184E0A80EB11CF60160817181FE
S113296082819381042DA3010E9486176C01F98151
S1132970FC87F0FF02C0F3FF06C091FC06C092FE84
S113298006C000E205C00DE203C00BE201C000E096
S11329908C858C7019F001115AC29BC297FE10C02D
S11329A04C0CFC85F4FF04C08A81813309F44A94F9
S11329B0141474F528E0241578F588E0482E2CC00A
S11329C096FC2AC0812F90E08C159D059CF03CEF6D
S11329D0C3163FEFD30674F0892D8068982E0AC081
S11329E0E2E0F0E0EC0FFD1FE10FF11D8081803388
S11329F019F411501111F4CF97FE0EC044244394DE
S1132A00410E812F90E0C816D9062CF41C1904C07D
S1132A104424439401C010E097FE06C01C141D0416
S1132A2034F4C601019605C085E090E002C081E05F
S1132A3090E001110196112331F0212F30E02F5F36
S1132A403F4F820F931F252D30E08217930714F414
S1132A50581A01C0512C892D897049F4552039F038
S1132A60B70180E290E00E9474185A94F7CF0023D3
S1132A7029F0B701802F90E00E94741893FC09C0DC
S1132A80552039F0B70180E390E00E9474185A94FD
S1132A90F7CF97FE4CC04601D7FE02C0812C912C83
S1132AA0C60188199909F301E80FF91FED87FE871C
S1132AB09601241931092F87388B012F10E01195C5
S1132AC0019511093FEF8316930629F4B7018EE2AD
S1132AD090E00E947418C814D9044CF08F8598892A
S1132AE08815990524F4ED85FE85818101C080E374
S1132AF0F1E08F1A91082D853E852F5F3F4F2D877A
S1132B003E87801691062CF0B70190E00E9474185D
S1132B10D9CFC814D90441F49A81963320F495335B
S1132B2019F43C8534FF81E3B70190E04EC08A81FB
S1132B30813319F09C859F7E9C87B70190E00E94A9
S1132B407418111105C094FC18C085E690E017C0F4
S1132B50B7018EE290E00E9474181E5F82E001E0EB
S1132B60080FF301E80FF11D8081B70190E00E9486
S1132B707418802F0113F3CFE6CF85E490E0B701FA
S1132B800E947418D7FC06C0C114D10441F4EC852A
S1132B90E4FF05C0D194C194D1088DE201C08BE259
S1132BA0B70190E00E94741880E32AE0C216D104B1
S1132BB02CF08F5FFAE0CF1AD108F7CFB70190E07D
S1132BC00E947418B701C601C0960E94741854C1BB
S1132BD0833631F0833779F0833509F056C020C04D
S1132BE0560132E0A30EB11CF6018081898301E015
S1132BF010E0630112C05601F2E0AF0EB11CF60101
S1132C00C080D18096FE03C0612F70E002C06FEFD8
S1132C107FEFC6010E9469188C01F92DFF7714C05B
S1132C20560122E0A20EB11CF601C080D18096FEAE
S1132C3003C0612F70E002C06FEF7FEFC6010E94F6
S1132C405E188C01F92DF0689F2EF3FD1AC0852DB6
S1132C5090E008171907A8F4B70180E290E00E94F9
S1132C6074185A94F4CFF60197FC859197FE8191DC
S1132C706F01B70190E00E94741851105A940150EA
S1132C8011090115110579F7F7C0843611F0893659
S1132C9061F5560197FE09C024E0A20EB11CF601AD
S1132CA060817181828193810AC0F2E0AF0EB11C10
S1132CB0F60160817181072E000C880B990BF92DA8
S1132CC0FF769F2E97FF09C090958095709561952A
S1132CD07F4F8F4F9F4FF0689F2E2AE030E0A30173
S1132CE00E94E718C82EC6183FC0092D853721F465
S1132CF00F7E2AE030E01DC0097F8F3691F018F472
S1132D00883559F0C3C0803719F0883711F0BEC038
S1132D10006104FF09C0046007C094FE08C0066097
S1132D2006C028E030E005C020E130E002C020E128
S1132D3032E0560107FF09C084E0A80EB11CF60179
S1132D40608171818281938108C0F2E0AF0EB11C71
S1132D50F6016081718180E090E0A3010E94E71890
S1132D60C82EC6180F77902E96FE0BC0092D0E7F25
S1132D70C11650F494FE0AC092FC08C0092D0E7EC0
S1132D8005C0DC2C092D03C0DC2C01C0D12E04FFAE
S1132D900DC0FE01EC0DF11D8081803311F4097E1C
S1132DA009C002FF06C0D394D39404C0802F867850
S1132DB009F0D39403FD11C000FF06C01C2DD514E7
S1132DC080F4150D1D190DC0D51458F4B70180E217
S1132DD090E00E947418D394F7CFD51410F45D18C2
S1132DE001C0512C04FF10C0B70180E390E00E94A1
S1132DF0741802FF17C001FD03C088E790E002C009
S1132E0088E590E0B7010CC0802F867859F001FF67
S1132E1002C08BE201C080E207FD8DE2B70190E0C1
S1132E200E947418C11638F4B70180E390E00E9440
S1132E3074181150F7CFCA94F301EC0DF11D808181
S1132E40B70190E00E947418C110F5CF15C0F4E0EA
S1132E50F51560F584E0581A93FE1FC0011127C0D0
S1132E602C8523FF2AC00EE712E0392D3071932EF2
S1132E70F8018491811124C0552009F4E4CCB701F0
S1132E8080E290E00E9474185A94F6CFF70186818C
S1132E90978126C08FEF9FEF23C0B70180E290E0B7
S1132EA00E9474185A945110F8CFD8CF512CB701FE
S1132EB0802F90E00E947418D3CF02E812E0D5CF9F
S1132EC091108052B70190E00E9474180F5F1F4F59
S1132ED0CFCF23E0251510F483E0BDCF512CC0CF14
S1132EE06096CDBFDEBFDF91CF911F910F91FF9010
S1132EF0EF90DF90CF90BF90AF909F908F907F9096
S1132F006F905F904F903F902F900895283008F075
S1132F1027E03327DA01990F311D87FD9160009670
S1132F206105710539F432602E5F3D9330E32A95D3
S1132F30E1F708959F3F30F080387105610509F08D
S1132F403C5F3C5F3D93913008F08068911DDF93B6
S1132F50CF931F930F93FF92EF92192F987F96951B
S1132F60E92F96959695E90FFF27E052FD4F992793
S1132F703327EE24FF24A701E70105900894079462
S1132F8028F4360FE71EF81E491F511D660F771FE0
S1132F90881F991F0694A1F70590079428F4E70E5B
S1132FA0F81E491F561FC11D770F881F991F661FE2
S1132FB00694A1F70590079428F4F80E491F561FAC
S1132FC0C71FD11D880F991F661F771F0694A1F78D
S1132FD00590079420F4490F561FC71FD81F990F57
S1132FE0661F771F881F0694A9F7849110951770A0
S1132FF041F0D695C79557954795F794E7941A9558
S1133000C1F7E6E8F2E06894159015913591659161
S1133010959105907FE27395E118F10A430B560BE5
S1133020C90BD009C0F7E10CF11E431F561FC91F7D
S1133030D01D7EF4703311F48A95E6CFE8940150E4
S113304030F0080F0AF40027021708F4202F239504
S1133050022F7A3328F079E37D932A95E9F710C09B
S11330607D932A9589F606949795679537951795D4
S11330701794E118F10A430B560BC90BD00998F0C9
S113308023957E9173957A3308F070E37C93201333
S1133090B8F77E9170617D9330F0839571E37D93F1
S11330A070E32A95E1F71124EF90FF900F911F919F
S11330B0CF91DF91992787FD90950895FC010590A4
S11330C0615070400110D8F7809590958E0F9F1F26
S11330D00895FC016150704001900110D8F780956B
S11330E090958E0F9F1F08950F931F93CF93DF9397
S11330F0FB01238121FD03C08FEF9FEF2CC022FF32
S113310016C046815781248135814217530744F400
S1133110A081B1819D012F5F3F4F208331838C9328
S1133120268137812F5F3F4F2683378314C08B015D
S1133130EC01FB010084F185E02D1995892BE1F662
S1133140D80116968D919C911797019616968D939A
S11331509C931797CE01DF91CF911F910F91089502
S11331600F931F93CF93DF93CDB7DEB72E97CDBFC9
S1133170DEBF0E891F89888D998D26E02C830983F3
S11331801A8397FF02C080E090E801978D839E83A5
S1133190AE01445E5F4F6A8D7B8DCE0101960E9425
S11331A0E6134D815E8157FD0AC02F813885421791
S11331B053070CF49A01F801E20FF31F10822E96C4
S11331C0CDBFDEBFDF91CF911F910F910895FA011A
S11331D0AA27283051F1203181F1E8946F936E7F52
S11331E06E5F7F4F8F4F9F4FAF4FB1E03ED0B4E043
S11331F03CD0670F781F891F9A1FA11D680F791F84
S11332008A1F911DA11D6A0F711D811D911DA11D94
S113321020D009F468943F912AE0269F11243019A4
S1133220305D3193DEF6CF010895462F4770405D3F
S11332304193B3E00FD0C9F7F6CF462F4F70405DEE
S11332404A3318F0495D31FD4052419302D0A9F749
S1133250EACFB4E0A6959795879577956795BA9543
S1133260C9F700976105710508959B01AC010A2E09
S113327006945795479537952795BA95C9F7620FE0
S1113280731F841F951FA01D0895F894FFCF9F
S113328EE17AD43E440B87C2094325643A2025755E
S113329E202830782530347829095125753A20258F
S11332AE640D0A004572726F723A20636F756C6416
S11332BE206E6F74207265616420666C6F77207364
S11332CE656E736F722050524F4D2E000952657306
S11332DE657474696E6720466C6F772053656E73E0
S11332EE6F722E2E2E20004572726F723A20636F0B
S11332FE756C64206E6F7420726573657420666CD1
S113330E6F772073656E736F722E00095265616458
S113331E696E6720466C6F772053656E736F7220EB
S113332E50524F4D2E2E2E0D0A0009444F4E45215C
S113333E0D0A004572726F723A20636F756C6420C9
S113334E6E6F7420636F6E7665727420707265731F
S113335E7375726520696E20666C6F772073656E67
S113336E736F722E004572726F723A20636F756CB2
S113337E64206E6F7420636F6E766572742074654C
S113338E6D706572617475726520696E20666C6FFE
S113339E772073656E736F722E004572726F723A78
S11333AE20636F756C64206E6F7420726561642087
S11333BE41444320696E20666C6F772073656E738B
S11333CE6F722E000850237365703D2C0D0A5469DC
S11333DE6D65205B6D735D2C5072657373757265CC
S11333EE205B7073695D2C54656D706572617475C4
S11333FE7265205B6F435D2C4F32205B636F756E7D
S113340E74735D0D0A00252E33662C252E34662C1E
S113341E252E32662C25640D0A007365703D2C0D25
S113342E0A54696D65205B6D735D2C4F32205B25EC
S113343E5D2C205645205B6C5D0D0A00252E3366EF
S113344E2C252E33662C252E33660D0A00617667E5
S113345E53616D706C653A20252E336620636F754B
S113346E6E74730D0A61766747617363616C3A20FB
S113347E252E336620636F756E74730D0A004761D3
S113348E696E3A20252E33665B25252F636F756E84
S113349E74735D0D0A4F66667365743A20252E3378
S11334AE6625250D0A0061766753616D706C653A69
S11334BE20252E336620636F756E74730D0A008398
S10B34CE00FD000C00040000E5
S9030000FC
