S010000065766F675F6F6E652E73726563C2
S11300000C94C0010C94E6010C94E6010C94E601F6
S11300100C94E6010C94E6010C94E6010C94E601C0
S11300200C94E6010C94E6010C94E6010C94E601B0
S11300300C94E6010C94E6010C9430070C94E60150
S11300400C94E6010C94E6010C94E6010C94E60190
S11300500C94E6010C94E6010C94E6010C94E60180
S11300600C94E6010C94E6010C94E6010C94E60170
S11300700C9461080C948D080C9479080C94E60196
S11300800C94E6010C94E6010C94E6010C94E60150
S11300900C94E6010C94E6010C94E6010C94E60140
S11300A00C94E6010C94E6010C94E6010C94E60130
S11300B00C94E6010C94E6010C94E6010C94E60120
S11300C00C94E6010C94E6010C94E6010C94E60110
S11300D00C94E6010C94E6010C94E6010C94E60100
S11300E00C94E6010C94E6010C94A1080C94E6012E
S11300F00C94E6010C94E6010C94E6010C94E601E0
S11301000C94E6010C94E6010C94E6010C94E601CF
S11301100C94E6010C94E6010C94E6010C94E801BD
S11301200C9406020C9424020C9442020C94E601F2
S11301300C94E6010C94E6010C94E6010C94E6019F
S11301400C94E6010C94E6010C94E6010C94E6018F
S11301500C94E6010C94E6010C94E6010C94E6017F
S11301600C94E6010C94E6010C94E6010C94E6016F
S11301700C94E6010C94E6010C94E6010C94E6015F
S11301800C94E6010C94E6010C94E6010C94E6014F
S11301900C94E6010C94E6010C94E6010C94E6013F
S11301A00C94E6010C94E6010C94E6010C94E6012F
S11301B00C94E6010C94E6010C94E6010C94E6011F
S11301C00C94E6010C94E6010C94E6010C94E6010F
S11301D00C94E6010C94E6010C94E6010C94E601FF
S11301E00C94E6010C94E6010C94E6010C94E601EF
S11301F00C94E6010C94E6010C94E6010763423684
S1130200B79BD8A71A39685618AEBAAB558C1D3CA3
S1130210B7CC5763BD6DEDFD753EF6177231BF0067
S11302200000803F08000000BE922449123EABAAA1
S1130230AA2ABECDCCCC4C3E00000080BEABAAAAFC
S1130240AA3E00000000BF000000803F0000000044
S113025000084178D3BB4387D1133D190E3CC3BD7D
S11302604282AD2B3E68EC8276BED98FE1A93E4C2A
S113027080EFFFBE01C4FF7F3F00000000006E61FD
S11302806E00696E660000407A10F35A00A0724E48
S113029018090010A5D4E80000E87648170000E427
S11302A00B54020000CA9A3B000000E1F50500006F
S11302B080969800000040420F000000A0860100D4
S11302C00000102700000000E803000000006400A4
S11302D0000000000A00000000000100000000000F
S11302E02C76D888DC674F0823DFC1DFAE59E1B133
S11302F0B796E5E3E453C63AE651997696E8E6C242
S11303008426EB898C9B62ED407C6FFCEFBC9C9F48
S113031040F2BAA56FA5F490055A2AF75C936B6C6A
S1130320F9676DC11BFCE0E40D47FEF520E6B5005E
S1130330D0ED902E0300943577050080841E0800CC
S113034000204E0A000000C80C333333330F986E7C
S113035012831141EF8D2114893BE65516CFFEE639
S1130360DB18D1844B381BF77C1D901DA4BBE424FF
S1130370203284725E228100C9F124ECA1E53D277C
S113038011241FBECFEFCDBFDFE3DEBF00E00CBF03
S113039018BE19BE1ABE1BBE13E2A0E0B0E2E0ED27
S11303A0F1E300E00BBF02C007900D92A030B1074B
S11303B0D9F71BBE23E2A0E0B3E201C01D92AA3527
S11303C0B207E1F70E94DD0D0C94E6180C940000CE
S11303D01F920F920FB60F92112408B60F9218BEF7
S11303E08F939F9381E080930B23809110029091CF
S11303F0110280930623909307239F918F910F906E
S113040008BE0F900FBE0F901F9018951F920F9269
S11304100FB60F92112408B60F9218BE8F939F93B4
S113042081E080930A2380911202909113028093B9
S11304300423909305239F918F910F9008BE0F90F2
S11304400FBE0F901F9018951F920F920FB60F9228
S1130450112408B60F9218BE8F939F9381E0809366
S113046009238091140290911502809302239093A2
S113047003239F918F910F9008BE0F900FBE0F9092
S11304801F9018951F920F920FB60F92112408B661
S11304900F9218BE8F939F9381E0809308238091DD
S11304A016029091170280930023909301239F9149
S11304B08F910F9008BE0F900FBE0F901F9018954C
S11304C0613061F028F0623079F0633099F008957A
S11304D010920B2380910002846011C010920A23B1
S11304E08091000288600BC0109209238091000261
S11304F0806105C01092082380910002806280937D
S113050000020895613059F028F0623069F06330D8
S113051081F0089580910B238823E1F3089580915D
S11305200A238823E1F30895809109238823E1F3C2
S11305300895809108238823E1F308950F931F936E
S1130540CF938C01C62F0E9460026C2FC8010E94B9
S11305508202C13079F048F0C23089F0C330A1F48E
S1130560809116029091170211C08091100290910F
S113057011020CC0809112029091130207C0809165
S113058014029091150202C080E090E0CF911F9177
S11305900F91089521E0FC012183E0E0F2E08081E5
S11305A0816080830895FC0165876093040214824E
S11305B0A1E0B2E08C918F7E8C9381E0828BA0E2EB
S11305C0B2E08C918C7F81608C93168AA1E2B2E0B8
S11305D08C9187788C9342A3A2E2B2E08C918C7FB9
S11305E0482B4C93CF010C94CA02CF92DF92FF9216
S11305F00F931F93CF93DF93CDB7DEB7A897CDBFEB
S1130600DEBF8C01F62E88E2E4E2F0E2DE01119610
S113061001900D928A95E1F740E0F80163818481AD
S113062095810E945108F801848195810E949F0759
S1130630F8012481358181112EC06F2DC9010E94DA
S11306405D0841E063E0F801848195810E941A0805
S1130650F801848195810E949F07F80124813581E6
S1130660882349F0BE016F5F7F4FC9010E94BA071A
S113067080E090E061C041E0F8016381C9010E941B
S11306805108F801848195810E949F07F801248113
S11306903581882361F041E063E0C9010E941A08B2
S11306A0BE016F5F7F4FF80184819581DFCF60E0E9
S11306B0C9010E941508C82ED12CDC2CCC2440E0A2
S11306C062E0F801848195810E941A0861E0F801D2
S11306D0848195810E941508C82A6F2D70E0605AA4
S11306E0710977FF02C06F5F7F4F75956795F801B9
S11306F0E60FF71F818D1F928F937F936F93DF9285
S1130700CF92DF92CF927F936F9388E090E29F9392
S11307108F931F9280E48F938AE193E29F938F9348
S11307200E9451186AE173E2F801868197810E9460
S1130730BE08CDBFDEBFC601A896CDBFDEBFDF9128
S1130740CF911F910F91FF90DF90CF9008950F9359
S11307501F93CF93DF93CDB7DEB7A497CDBFDEBF92
S11307608C0184E2E7E6F0E2DE01119601900D923D
S11307708A95E1F76CE470E2F801868197810E9422
S1130780BE0840E0F8016381848195810E9451088C
S1130790F801848195810E949F07F80124813581A5
S11307A0882331F041E063E0C9010E941A0812C0B5
S11307B06EE1C9010E945D0841E063E0F8018481B3
S11307C095810E941A08F801848195810E949F07EF
S11307D0882349F0BE016F5F7F4FF80184819581C2
S11307E00E94BA070BC083E090E00E946C096BEA98
S11307F070E2F801868197810E94BE08A496CDBF5D
S1130800DEBFDF91CF911F910F910895CF93DF93B6
S1130810EC016BE870E28E819F810E94BE0862EA5F
S1130820CE010E94F5028887998764EACE010E946E
S1130830F5028A879B8766EACE010E94F5028C87BF
S11308409D8768EACE010E94F5028E879F876AEA37
S1130850CE010E94F502888B998B6CEACE010E942E
S1130860F5028A8B9B8B6AEA70E28E819F81DF910D
S1130870CF910C94BE086F927F928F92EF92FF9269
S11308800F931F93CF93DF93EC013A01862E6EE012
S11308906C8B50E15D8B87E08E8B35E03F8B888FCE
S11308A095E1998F6A8F5B8F8C8F3D8F8E8F9F8F91
S11308B0688279828A822B830C831D83EE82FF8275
S11308C0CE010E94A703CE01DF91CF911F910F911A
S11308D0FF90EF908F907F906F900C9406040F938D
S11308E01F93CF93DF93CDB7DEB7E297CDBFDEBFC3
S11308F08C0182E3E3EBF0E2DE01119601900D92AC
S11309008A95E1F740E0F8016381848195810E9432
S11309105108F801848195810E949F07F801248180
S11309203581882331F041E063E0C9010E941A084F
S113093014C0F8016081605CC9010E945D0841E057
S113094063E0F801848195810E941A08F80184818A
S113095095810E949F07882349F0BE016F5F7F4FF6
S1130960F801848195810E94BA0705C0F80181814C
S113097092810E947B09E296CDBFDEBFDF91CF91C9
S11309801F910F9108950F931F93CF93DF93CDB7CA
S1130990DEB7E597CDBFDEBF8C0185E3E5EEF0E27F
S11309A0DE01119601900D928A95E1F740E0F8017D
S11309B06381848195810E945108F8018481958125
S11309C00E949F07F80124813581882331F041E09A
S11309D063E0C9010E941A0814C0F8016081605BD9
S11309E0C9010E945D0841E063E0F80184819581BA
S11309F00E941A08F801848195810E949F07882328
S1130A0049F0BE016F5F7F4FF801848195810E9498
S1130A10BA0705C0F801818192810E947B09E5969D
S1130A20CDBFDEBFDF91CF911F910F910895EF925B
S1130A30FF920F931F93CF93DF93CDB7DEB7AA979F
S1130A40CDBFDEBF8C018AE2EAE1F1E2DE0111965C
S1130A5001900D928A95E1F740E0F8016381848169
S1130A6095810E945108F801848195810E949F0715
S1130A70F8012481358181112FC060E0C9010E94F1
S1130A805D0841E063E0F801848195810E941A08C1
S1130A90F801848195810E949F07F80124813581A2
S1130AA0882351F0BE016F5F7F4FC9010E94BA07CE
S1130AB060E070E0CB014AC041E0F8016381C90104
S1130AC00E945108F801848195810E949F07F801D2
S1130AD024813581882361F041E063E0C9010E94EB
S1130AE01A08BE016F5F7F4FF80184819581DECFC4
S1130AF060E0C9010E941508E82E40E062E0F801B8
S1130B00848195810E941A0860E0F80184819581AE
S1130B100E941508F82E40E062E0F8018481958176
S1130B200E941A0861E0F801848195810E941508E9
S1130B304F2D50E060E070E0762F652F542F44274E
S1130B406E298A019B01082BC901B801AA96CDBF61
S1130B50DEBFDF91CF911F910F91FF90EF90089529
S1130B602F923F924F925F926F927F928F929F92B9
S1130B70AF92BF92CF92DF92EF92FF920F931F93A7
S1130B80CF93DF93CDB7DEB76A97CDBFDEBF1C012D
S1130B900E946F04C1010E9417054B015C01C10151
S1130BA00E94C304C1010E9417052B013C01F101FD
S1130BB0608D70E080E090E00E94DE109B01AC014B
S1130BC060E070E080E090E40E9402126B017C011E
S1130BD0C301B2010E94DE102B013C01F1016089C6
S1130BE0718980E090E00E94DE10A70196010E94C6
S1130BF095119B01AC01C301B2010E94FF0F6B016F
S1130C007C01F101618D70E080E090E00E94DE10D3
S1130C109B01AC0160E070E080E090E40E9402126D
S1130C202B013C01F101658970E080E090E00E94B5
S1130C30DE109B01AC0160E070E080E090E40E9473
S1130C40021269877A878B879C87F101678970E034
S1130C5080E090E00E94DE109B01AC0160E070E057
S1130C6080E090E40E9402126D877E878F87988BC4
S1130C70F101648970E080E090E00E94DE109B0145
S1130C80AC0160E070E080E090E40E940212698BA5
S1130C907A8B8B8B9C8BF101668970E080E090E00D
S1130CA00E94DE109B01AC0160E070E080E090E403
S1130CB00E9402126D8B7E8B8F8B988FF10162895B
S1130CC0738980E090E00E94DE10A70196010E94E3
S1130CD09511A30192010E946C1020E030E04AEFCC
S1130CE054E40E94001020E030E048EC52E40E94FA
S1130CF06C10162F072F898F9A8FF10164857585E3
S1130D0080E090E00E94DE10A70196010E949511F8
S1130D102D893E894F89588D0E946C102B013C010E
S1130D20F1016085718580E090E00E94DE102989E0
S1130D303A894B895C890E9495119B01AC01C301DE
S1130D40B2010E9400102B013C01C501B4010E94B4
S1130D50DE109B01AC01C301B2010E94951120E099
S1130D6030E040E055E30E9495114B015C01F10134
S1130D706685778580E090E00E94DE10A7019601E9
S1130D800E9495112D853E854F8558890E946C10CF
S1130D906B017C01F1016285738580E090E00E9423
S1130DA0DE1029853A854B855C850E9495119B014F
S1130DB0AC01C701B6010E9400109B01AC01C50142
S1130DC0B4010E94FF0F20E030E040E058E30E94AD
S1130DD0951120E030E048EC52E40E946C109B0135
S1130DE0AB01BC0149835A836B837C83812F902F91
S1130DF0A98DBA8D8D839E83AF83B8873A814B8149
S1130E005C81612F7E818F8198856A96CDBFDEBF1C
S1130E10DF91CF911F910F91FF90EF90DF90CF90D2
S1130E20BF90AF909F908F907F906F905F904F9006
S1130E303F902F900895FC0198E090934106909381
S1130E4046061082089528E02093450621E0FC011F
S1130E502083089528E020934606FC01108208951B
S1130E601F920F920FB60F92112408B60F9218BE5C
S1130E7009B60F9219BE0BB60F921BBE2F933F9368
S1130E804F935F936F937F938F939F93AF93BF938E
S1130E90EF93FF9360910C2370910D2380910E23A7
S1130EA090910F232091102330911123409112230C
S1130EB0509113230E940010609310237093112308
S1130EC08093122390931323FF91EF91BF91AF91DD
S1130ED09F918F917F916F915F914F913F912F914E
S1130EE00F900BBE0F9009BE0F9008BE0F900FBE5F
S1130EF00F901F901895FC016787E6E0F8E0808169
S1130F008C7F682B608308950F93FC01608360934A
S1130F10000820930C2330930D2340930E23509309
S1130F200F23602F0F910C947B078091A40487FFFB
S1130F30FCCF08958091A40486FFFCCF089590917E
S1130F40A4049C7181E009F480E008958091A404D4
S1130F5084FD0AC08091A40483FD08C08091A40488
S1130F6082FD06C083E0089580E0089581E008953D
S1130F7082E00895CF93DF93EC018B859C850E94DA
S1130F80BE0867E471E28B859C850E94BE08CE0191
S1130F900E94A607813059F038F0823059F083302E
S1130FA089F461E771E208C066E571E205C06EE5A7
S1130FB071E202C068E671E28B859C85DF91CF9176
S1130FC00C94BE08DF91CF91089521E0FC012583A4
S1130FD0E1EAF4E0808188608083089521E0FC01E7
S1130FE02087E2EAF4E08081816080830895FC0137
S1130FF06683E2EAF4E0808194E0699FB001112401
S1131000837F682B60830895FC016187662319F050
S1131010613029F008958091A3048B7F03C08091EF
S1131020A30484608093A30408950E94040880911B
S1131030A70408951F93CF93DF93EC01162F642F19
S11310400E9404088091A3048C7F812B8093A304C5
S1131050123031F4CE01DF91CF911F910C9495079A
S1131060DF91CF911F910895E4EAF4E080818160DB
S113107080830895CF93DF93EC016A874E832B8797
S11310803C876093A504642F0E94F707CE010E9459
S1131090EE07CE010E94E507CE01DF91CF910C94BB
S11310A03408660F413029F461606093A6040C94FF
S11310B095076093A6040C949A076093A7040C9474
S11310C09A071F920F920FB60F92112408B60F922F
S11310D018BE8F9381E0809317238091B00880938A
S11310E014238F910F9008BE0F900FBE0F901F9086
S11310F018951F920F920FB60F92112408B60F92F3
S113110018BE8F9381E0809316238F910F9008BEB1
S11311100F900FBE0F901F9018951F920F920FB64D
S11311200F92112408B60F9218BE8F9381E080931A
S113113015238F910F9008BE0F900FBE0F901F9034
S113114018951F920F920FB60F92112408B60F92A2
S113115018BE8F9381E0809319238091A00A809315
S113116018238F910F9008BE0F900FBE0F901F9001
S113117018958091A10A85FFFCCF0895EF92FF9204
S11311800F931F93CF937C018B01F801C1918F01C1
S1131190CC2331F0C7010E94B908C093A00AF5CF4F
S11311A0CF911F910F91FF90EF900895FC01608300
S11311B0E3EAFAE0808190E1699FB00111248F7C19
S11311C0682B6083089521E0FC012383E4EAFAE0BC
S11311D0808180618083089521E0FC012483E4EA16
S11311E0FAE0808188608083089521E0FC012583F2
S11311F0E4EAFAE08081846080830895FC016387D7
S113120074876093A60AE7EAFAE080818F70782BEE
S113121070830895FC016587E7EAFAE0808190E134
S1131220699FB00111248F70682B60830895FF9229
S11312300F931F93CF93DF93EC01F62E072F122FFA
S1131240BA010E94FE086F2DCE010E940A090023F4
S113125019F0CE010E94F508CE010E94E308CE01E8
S11312600E94EC08612FCE010E94D60888E080938A
S11312708106DF91CF911F910F91FF900895909176
S1131280500041E050E0082E02C0440F551F0A945C
S1131290E2F7942B909350002091510030E02423E6
S11312A03523232BC9F398ED94BF80934000089510
S11312B0E2EAF0E04081815021E030E0B90102C06F
S11312C0660F771F8A95E2F7CB01842B80830895FC
S11312D08FB780688FBF089520E030E02817390762
S11312E049F0EFE3FFE13197F1F700C000002F5F11
S11312F03F4FF4CF089520E030E02817390739F044
S11313004AE04A95F1F700C02F5F3F4FF6CF0895AA
S1131310AF92BF92CF92DF92EF92FF920F931F93FF
S1131320CF93DF935C018B01C0E0D0E0C12CD12CC2
S11313307601CA15DB0551F060E0C8010E949E02E7
S1131340C80ED91EE11CF11C2196F3CFC701B601CA
S11313500E94DE106B017C01BE0180E090E00E94DF
S1131360DE109B01AC01C701B6010E946C10DF9135
S1131370CF911F910F91FF90EF90DF90CF90BF908E
S1131380AF9008957F928F929F92AF92BF92CF9227
S1131390DF92EF92FF920F931F93CF93DF93CDB71A
S11313A0DEB72897CDBFDEBF4C015B0189016BE737
S11313B071E2C9010E94BE088AEBC82E81E2D82ED0
S11313C090E4792E2AE1E22E23E2F22E8091192371
S11313D081113DC0C4010E94B00529833A834B8327
S11313E05C836D837E838F83988760E0C5010E9450
S11313F09E02409110235091112360911223709109
S113140013239F938F9388858F938F818F938E81DE
S11314108F938D818F938C818F938B818F938A810E
S11314208F9389818F937F936F935F934F93DF9211
S1131430CF921F927F92FF92EF920E9451186AE11D
S113144073E2C8010E94BE08CDBFDEBFBFCF1092B9
S113145019232896CDBFDEBFDF91CF911F910F9145
S1131460FF90EF90DF90CF90BF90AF909F908F90C0
S11314707F9008952F923F924F925F926F927F9246
S11314808F929F92AF92BF92CF92DF92EF92FF9290
S11314900F931F93CF93DF93CDB7DEB7A697CDBF3E
S11314A0DEBF298B3A8B4B8B5C8B6D8B7E8B8F8B4A
S11314B0988F0DA31EA3EB8EFC8ECD8EDE8E8F8EA9
S11314C098A22CAC3DAC8EAD9FAD898F9A8F6EECFB
S11314D071E2C4010E94BE088090102390901123F1
S11314E0A0901223B0901323409010235090112306
S11314F060901223709013238B8D9C8D0E94B005F5
S113150029873A874B875C876D877E878F87988B7F
S113151029A33AA34BA35CA38D8D9E8D0E94230720
S113152000E010E080911923811199C0C09010232C
S1131530D0901123E0901223F0901323E98DFA8DBB
S11315408181A5019401882371F0C701B6010E942D
S1131550FF0F20E030E44CE155E40E94901118168E
S11315600CF49DC00DC0C701B6010E94FF0F20E01E
S113157030E44CE155E40E94901118160CF494C028
S1131580A3019201C701B6010E94FF0F20E030E4DD
S11315904CE955E40E94901118168CF56DA17EA1BA
S11315A080E094E00E94880929893A894B895C8902
S11315B00E9495112D893E894F89588D0E940010F3
S11315C09F938F937F936F93FF92EF92DF92CF92CB
S11315D088EE91E29F938F931F92F0E4FF938AE148
S11315E093E29F938F930E9451186AE173E28F8D67
S11315F098A10E94BE08CDBFDEBF260137018B8DA6
S11316009C8D0E94B00529833A834B835C836D8350
S11316107E838F839887F22EE32ED42EC52E29A1A4
S11316203AA14BA15CA16F2D7E2D8D2D9C2D0E9486
S11316309011F101918118164CF491113CC01F5F77
S11316401930C8F1C1010E94F20F35C09923C9F1C4
S11316500F5F0930B0F1C1010E94F90F32C08D8DC6
S11316609E8D0E942A07C1010E94F90F898D9A8DCF
S1131670A696CDBFDEBFDF91CF911F910F91FF9052
S1131680EF90DF90CF90BF90AF909F908F907F901E
S11316906F905F904F903F902F900C94F90F898D2D
S11316A09A8D0E94F90F04C0898D9A8D0E94F20FC1
S11316B04601570165CF00E0F9A2EAA2DBA2CCA261
S11316C031CF10E0F9CF2F923F924F925F926F92F9
S11316D07F928F929F92AF92BF92CF92DF92EF92BE
S11316E0FF920F931F93CF93DF93CDB7DEB7699724
S11316F0CDBFDEBF8C8B9D8B6E8B7F8B288F398FFC
S11317001701C986DA868091102390911123A09144
S11317101223B09113238B879C87AD87BE8740909B
S11317201023509011236090122370901323CB0147
S11317300E942307C8010E94F20FC7010E94F90FFB
S113174089859A850E94F90F1F86188A198A1A8A30
S11317501B8A812C912C5401C0901023D09011230A
S1131760E0901223F0901323A985BA8511968C91E9
S11317702B853C854D855E85882369F0C701B601BC
S11317800E94FF0F20E030E44CE155E40E949011E8
S11317901816C4F10CC0C701B6010E94FF0F20E067
S11317A030E44CE155E40E949011181684F1F801DC
S11317B081818823A9F1A3019201C701B6010E9486
S11317C0FF0F20E030E64AE656E40E949011181616
S11317D03CF56C897D8980E094E00E94880920E0D2
S11317E030E040E05EE30E9495119B01AC01C5012D
S11317F0B4010E9400104B015C01C8010E94F90F62
S1131800C101C2C089859A850E94F90F04C08985E7
S11318109A850E94F20FCB86DC86ED86FE86C7CFC2
S1131820F1018181811182C09F85983009F094CFA4
S11318308E899F890E942A07C8010E94F90FC1015D
S11318400E94F90F89859A850E94F90F28893989A0
S11318504A895B89C501B4010E94FF0F9B01AC0159
S113186068E774E18EE790E40E946C107B018C01C0
S1131870762F272F3F2D402F512FC501B4010E94F1
S113188095119B01AC016FE872EC87EA91E40E9428
S1131890FF0F5B016C01DF928F93BF926F931F93D5
S11318A00F93FF92EF9284EF91E29F938F931F9295
S11318B080E48F938AE193E29F938F930E9451185F
S11318C06AE173E2888D998D0E94BE082E2D8E2DBB
S11318D09F2DA02FB12F89839A83AB83BC836A2D5C
S11318E08A2D9B2DAC2DBD2D8D839E83AF83B88710
S11318F03A814B815C817E818F819885CDBFDEBF2B
S11319006996CDBFDEBFDF91CF911F910F91FF90FC
S1131910EF90DF90CF90BF90AF909F908F907F908B
S11319206F905F904F903F902F900895A301920184
S1131930C701B6010E94FF0F20E030E64AE656E4F4
S11319400E94901118160CF06FCF6C897D8980E08D
S113195094E00E94880920E030E040E05EE30E94C9
S113196095119B01AC01688979898A899B890E94B8
S11319700010688B798B8A8B9B8BFF85FF5FFF87B9
S1131980C1010E94F90FC8010E94F20F260137011C
S11319904BCF2F923F924F925F926F927F928F9292
S11319A09F92AF92BF92CF92DF92EF92FF920F93EA
S11319B01F93CF93DF93CDB7DEB76797CDBFDEBF5D
S11319C06C8B7D8B8E8B9F8B1A018901EA8AFB8A33
S11319D05601409010235090112360901223709070
S11319E013238091102390911123A0911223B0917D
S11319F013238E879F87A88BB98BC9010E94230765
S1131A00C6010E94F20FC4010E94F90F19861A86BA
S1131A101B861C861D86C0901023D0901123E09055
S1131A201223F0901323D40111968C91A3019201F7
S1131A30882371F0C701B6010E94FF0F20E030E453
S1131A404CE155E40E94901118160CF4ACC00DC082
S1131A50C701B6010E94FF0F20E030E44CE155E4D9
S1131A600E94901118160CF4A2C02E853F85488957
S1131A705989C701B6010E94FF0F20E030E64AE60B
S1131A8056E40E94901118160CF46EC09985983093
S1131A9008F4C1CFC8010E942A07C5010E94F90FAA
S1131AA0C4010E94F90FCC88DD88EE88FF88960176
S1131AB0A7016A857B858C859D850E9495119B0174
S1131AC0AC016FE872EC87EA91E40E94FF0F5B01BE
S1131AD08C011F938F93BF926F93FF92EF92DF92CB
S1131AE0CF9284EF91E29F938F931F9280E48F9320
S1131AF08AE193E29F938F930E9451186AE173E203
S1131B008A899B890E94BE082C2D8C2D9D2DAE2D7B
S1131B10BF2D89839A83AB83BC836A2D8A2D9B2D29
S1131B20A02FB12F8D839E83AF83B8873A814B81D9
S1131B305C817E818F819885CDBFDEBF6796CDBFE6
S1131B40DEBFDF91CF911F910F91FF90EF90DF9057
S1131B50CF90BF90AF909F908F907F906F905F9049
S1131B604F903F902F900895B10180E094E00E943F
S1131B70880920E030E040E05EE30E9495119B017B
S1131B80AC016A857B858C859D850E9400106A87DF
S1131B907B878C879D87B985BF5FB987CE86DF86B3
S1131BA0E88AF98A73CFC4010E94F90F03C0C40103
S1131BB00E94F20F2601370158CFCF93DF93CDB7A0
S1131BC0DEB7C659D109CDBFDEBF81E00E943F090F
S1131BD04091FB225091FC226091FD227091FE22E3
S1131BE022E0CE01835A9F4F0E94170960EB70E2F6
S1131BF0CE01835A9F4F0E94BE086EE072E2CE016E
S1131C00835A9F4F0E94BE0862E372E2CE01835A58
S1131C109F4F0E94BE086EE072E2CE01835A9F4F2E
S1131C200E94BE0866E572E2CE01835A9F4F0E946D
S1131C30BE0882E00E94580983E00E9458090E946D
S1131C4068096BEA70E2CE01835A9F4F0E94BE0876
S1131C506EE672E2CE01835A9F4F0E94BE0803E0F3
S1131C602FE632E143E050E461E0CE01895B9F4F0F
S1131C700E9484076BEA70E2CE01835A9F4F0E9450
S1131C80BE0864E872E2CE01835A9F4F0E94BE08E8
S1131C909E01235A3F4F41E06BE9CE0185599F4F86
S1131CA00E943A086BEA70E2CE01835A9F4F0E9469
S1131CB0BE086AE972E2CE01835A9F4F0E94BE08B1
S1131CC043E067E0CE0101960E94D3026BEA70E222
S1131CD0CE01835A9F4F0E94BE086FEA72E2CE0182
S1131CE0835A9F4F0E94BE088091442190914521C0
S1131CF0A09146219E01235A3F4F79018E01055937
S1131D001F4F26E7AC016A2FCE0187960E943B0441
S1131D106BEA70E2C7010E94BE086DEC72E2C70173
S1131D200E94BE08CE018A579F4FC957DF4F888350
S1131D309983C758D0400E941B076BEA70E2C70121
S1131D400E94BE0863EE72E2C7010E94BE08FE0153
S1131D50EC57FF4FC757DF4FE883F983C958D0408A
S1131D6062E0CF010E94E90F9E012E573F4FC557F5
S1131D70DF4F28833983CB58D04064E0C9010E94E7
S1131D80E90FCE0180589F4FC357DF4F8883998353
S1131D90CD58D04060E10E94E90F6BEA70E2C701C0
S1131DA00E94BE083E0198E7690E711C88E0E0E0DD
S1131DB0F0E2D30101900D928A95E1F781EE282E8D
S1131DC08AE7382E84ED482E8EE3582EC357DF4F12
S1131DD0E881CD58D040C157DF4FE883CF58D04079
S1131DE0C257DF4FF881CE58D040C057DF4FF88339
S1131DF0C059D040C557DF4F2881CB58D040CF566B
S1131E00DF4F2883C159D040C457DF4F3881CC58A5
S1131E10D040CE56DF4F3883C259D040C957DF4F28
S1131E208881C758D040CD56DF4F8883C359D040EE
S1131E30C857DF4F9881C858D040CC56DF4F98839D
S1131E40C459D040C757DF4FE881C958D040CB565A
S1131E50DF4FE883C559D040C657DF4FF881CA58D1
S1131E60D040CA56DF4FF883C659D0408091192319
S1131E708823E1F31092192380911823813671F499
S1131E809E01235A3F4FAE01495B5F4FBE016F5F16
S1131E907F4FCE0187960E94C209E8CF823609F0AF
S1131EA045C0F3012082318242825382C057DF4F02
S1131EB0F881C059D040FF93C157DF4F2881CF58D4
S1131EC0D0402F93CA56DF4F3881C659D0403F9334
S1131ED0CB56DF4F8881C559D0408F93FE01E35A1A
S1131EE0FF4F4F019E01295B3F4F5901CD56DF4FF4
S1131EF0C880C359D040CC56DF4FD880C459D04095
S1131F00CE0187967C018E010F5F1F4FF301208164
S1131F1031814281538164817581868197810E94D8
S1131F203A0A0F900F900F900F90A0CF8336C1F410
S1131F309E0120583F4F6901CE018E579F4F7C016F
S1131F408E010C571F4F23523109AE01495B5F4F7D
S1131F50BE016A577F4F815891090E94630B2BC0C1
S1131F60843609F083CFC157DF4F8880CF58D040E3
S1131F70C057DF4F9880C059D040CF56DF4FA8805C
S1131F80C159D040CE56DF4FB880C259D0409E01CF
S1131F902C573F4F6901CE01835A9F4F7C018E011C
S1131FA0095B1F4F2E5F3F4FAE014F5F5F4FC20172
S1131FB0B1010E94C90CF30120833183428353830E
S1131FC06483758386839783208031804280538025
S1131FD04DCFFC0160836093410680818093460667
S1131FE011820895FC0120812093450621E021837C
S1131FF00895FC01208120934606118208955058CB
S1132000BB27AA270E9417100C9456110E9448114E
S113201038F00E944F1120F039F49F3F19F426F450
S11320200C9445110EF4E095E7FB0C943F11E92F55
S11320300E94671158F3BA1762077307840795075C
S113204020F079F4A6F50C9489110EF4E0950B2E8A
S1132050BA2FA02D0B01B90190010C01CA01A001F6
S11320601124FF27591B99F0593F50F4503E68F151
S11320701A16F040A22F232F342F4427585FF3CF92
S1132080469537952795A795F0405395C9F77EF463
S11320901F16BA0B620B730B840BBAF09150A1F0AC
S11320A0FF0FBB1F661F771F881FC2F70EC0BA0F32
S11320B0621F731F841F48F4879577956795B795BA
S11320C0F7959E3F08F0B0CF9395880F08F09927B5
S11320D0EE0F9795879508950E9480100C945611E1
S11320E00E944F1158F00E94481140F029F45F3FBC
S11320F029F00C943F1151110C948A110C94451140
S11321000E94671168F39923B1F3552391F3951B4A
S1132110550BBB27AA2762177307840738F09F5F04
S11321205F4F220F331F441FAA1FA9F335D00E2E71
S11321303AF0E0E832D091505040E695001CCAF7DE
S11321402BD0FE2F29D0660F771F881FBB1F2617A1
S113215037074807AB07B0E809F0BB0B802DBF0178
S1132160FF2793585F4F3AF09E3F510578F00C9447
S11321703F110C948A115F3FE4F3983ED4F38695A3
S113218077956795B795F7959F5FC9F7880F911D68
S11321909695879597F90895E1E0660F771F881F54
S11321A0BB1F621773078407BA0720F0621B730B07
S11321B0840BBA0BEE1F88F7E0950895E89409C0E4
S11321C097FB3EF490958095709561957F4F8F4F66
S11321D09F4F9923A9F0F92F96E9BB279395F6957C
S11321E0879577956795B795F111F8CFFAF4BB0FFA
S11321F011F460FF1BC06F5F7F4F8F4F9F4F16C05E
S1132200882311F096E911C0772321F09EE8872FE7
S1132210762F05C0662371F096E8862F70E060E0A3
S11322202AF09A95660F771F881FDAF7880F96951C
S1132230879597F90895990F0008550FAA0BE0E8C0
S1132240FEEF16161706E807F907C0F01216130674
S1132250E407F50798F0621B730B840B950B39F4B4
S11322600A2661F0232B242B252B21F408950A261A
S113227009F4A140A6958FEF811D811D089597F95A
S11322809F6780E870E060E008959FEF80EC089518
S113229000240A9416161706180609060895002441
S11322A00A9412161306140605060895092E0394BB
S11322B0000C11F4882352F0BB0F40F4BF2B11F42F
S11322C060FF04C06F5F7F4F8F4F9F4F089557FD8E
S11322D09058440F551F59F05F3F71F04795880F90
S11322E097FB991F61F09F3F79F087950895121627
S11322F013061406551FF2CF4695F1DF08C01616D3
S113230017061806991FF1CF869571056105089483
S11323100895E894BB2766277727CB0197F908959A
S11323200E941B1108F48FEF08950E94A8110C94C9
S113233056110E94481138F00E944F1120F0952345
S113234011F00C943F110C94451111240C948A1132
S11323500E94671170F3959FC1F3950F50E0551FCC
S1132360629FF001729FBB27F00DB11D639FAA27E6
S1132370F00DB11DAA1F649F6627B00DA11D661F35
S1132380829F2227B00DA11D621F739FB00DA11D56
S1132390621F839FA00D611D221F749F3327A00D10
S11323A0611D231F849F600D211D822F762F6A2FAC
S11323B011249F5750409AF0F1F088234AF0EE0F11
S11323C0FF1FBB1F661F771F881F91505040A9F73E
S11323D09E3F510580F00C943F110C948A115F3F8D
S11323E0E4F3983ED4F3869577956795B795F7957A
S11323F0E7959F5FC1F7FE2B880F911D96958795F2
S113240097F90895FA01EE0FFF1F30962105310563
S1132410A1F16115710561F48038BFE39B0749F1AF
S113242068949038810561F08038BFEF9B0741F0D4
S113243099234AF5FF3FE1053105210519F1E89497
S11324400894E795D901AA2329F4AB2FBE2FF85F8E
S1132450D0F310C0FF5F70F4A695E0F7F73950F0A1
S113246019F0FF3A38F49F779F930DD00F9007FC33
S11324709058089546F00C94451160E070E080E8AF
S11324809FE308954FE79F775F934F933F932F9375
S11324900E94FD122F913F914F915F910E949511DF
S11324A00C945A1229F416F00C943F110C948911CF
S11324B00C9445110E946F11A8F39638A0F707F801
S11324C00F92E8942BE33AEA48EB5FE70E94AB11E2
S11324D00F920F920F924DB75EB70F920E94451361
S11324E0ECEFF1E00E948C124F915F91EF91FF911C
S11324F0E595EE1FFF1F49F0FE57E0684427EE0FF5
S1132500441FFA95E1F74195550B0E94BF120F90B5
S113251007FE0C94B3120895DF93CF931F930F9388
S1132520FF92EF92DF927B018C01689406C0DA2E51
S1132530EF010E94A811FE01E894A591259135911F
S113254045915591A6F3EF010E941710FE019701E2
S1132550A801DA9469F7DF90EF90FF900F911F9133
S1132560CF91DF9108959B01AC0160E070E080E8B9
S11325709FE30C946C100C943F110C9479130E94FB
S11325806F11D8F39923C9F3940F511DA3F39150FC
S1132590504094F059F0882332F0660F771F881F5B
S11325A091505040C1F79E3F51052CF7880F911D63
S11325B09695879597F908955F3FACF0983E9CF007
S11325C0BB27869577956795B79508F4B160939581
S11325D0C1F7BB0F58F711F460FFE8CF6F5F7F4F6F
S11325E08F4F9F4FE3CF0C948A1116F00C947913FC
S11325F00C94451168940C943F110E946F11A8F338
S11326009923C1F3AEF3DF93CF931F930F93FF92FC
S1132610C92FDD2788232AF02197660F771F881F8B
S1132620DAF720E030E040E85FEB9FE3883920F000
S1132630803E38F021968F770E940010E4E2F2E0A9
S113264004C00E940010E1E5F2E00E948C128B01AC
S1132650BE01EC01FB2E6F5771097595771F880B2E
S1132660990B0E94E01028E132E741E35FE30E9406
S1132670A811AF2D9801AE01FF900F911F91CF913A
S1132680DF910E9417100C945611FA01DC01AA0F75
S1132690BB1F9B01AC01BF5728F4222733274427D3
S11326A0507820C0B75190F4AB2F0024469537954D
S11326B02795011CA395D2F3002071F0220F331F3C
S11326C0441FB395DAF30ED00C94FF0F61307105FB
S11326D0A0E88A07B94630F49B01AC016627772746
S11326E088279078309621F0208331834283538366
S11326F008959F3F31F0915020F487957795679521
S1132700B795880F911D9695879597F908952F92FF
S11327103F924F925F926F927F928F929F92AF926D
S1132720BF92CF92DF92EF92FF920F931F93CF93BA
S1132730DF93CDB7DEB76097CDBFDEBF7C011B0151
S11327406A01FC0116821782838181FF44C39E01C2
S11327502F5F3F4F3901F7019381F10193FD85917B
S113276093FF81911F01882309F431C3853239F421
S113277093FD859193FF81911F01853239F4B7014F
S113278090E00E94151856016501E5CF10E0512C28
S1132790912CFFE1F915D8F08B3279F038F48032BE
S11327A079F08332A1F4F92DF0612EC08D3261F0FD
S11327B0803369F4292D21602DC0392D3260932E88
S11327C0892D8460982E2AC0E92DE86015C097FCF5
S11327D02DC020ED280F2A3088F496FE06C03AE07A
S11327E0139F200D1124122F19C08AE0589E200D2A
S11327F01124522EE92DE0629E2E10C08E3231F447
S113280096FCE5C2F92DF0649F2E08C08C3621F4A5
S1132810292D2068922E02C0883641F4F10193FDDF
S1132820859193FF81911F018111B3CF9BEB980F89
S1132830933020F4992D9061805E07C09BE9980F36
S1132840933008F066C1992D9F7E96FF16E09F7322
S1132850992E853619F49064992E08C0863621F491
S1132860392F3068932E02C01111115097FE07C002
S11328701C3350F444244394410E27E00BC0183019
S113288038F027E017E005C027E09CE3492E02C09A
S1132890212F412C560184E0A80EB11CF601608161
S11328A0718182819381042DA3010E9427176C01F9
S11328B0F981FC87F0FF02C0F3FF06C091FC06C05B
S11328C092FE06C000E205C00DE203C00BE201C0A7
S11328D000E08C858C7019F001115AC29BC297FEDE
S11328E010C04C0CFC85F4FF04C08A81813309F4C8
S11328F04A94141474F528E0241578F588E0482ED9
S11329002CC096FC2AC0812F90E08C159D059CF06C
S11329103CEFC3163FEFD30674F0892D8068982EE0
S11329200AC0E2E0F0E0EC0FFD1FE10FF11D808131
S1132930803319F411501111F4CF97FE0EC04424C2
S11329404394410E812F90E0C816D9062CF41C192B
S113295004C04424439401C010E097FE06C01C1434
S11329601D0434F4C601019605C085E090E002C060
S113297081E090E001110196112331F0212F30E024
S11329802F5F3F4F820F931F252D30E0821793074F
S113299014F4581A01C0512C892D897049F455201A
S11329A039F0B70180E290E00E9415185A94F7CFED
S11329B0002329F0B701802F90E00E94151893FCA2
S11329C009C0552039F0B70180E390E00E94151842
S11329D05A94F7CF97FE4CC04601D7FE02C0812C13
S11329E0912CC60188199909F301E80FF91FED87A5
S11329F0FE879601241931092F87388B012F10E0A7
S1132A001195019511093FEF8316930629F4B70137
S1132A108EE290E00E941518C814D9044CF08F85FA
S1132A2098898815990524F4ED85FE85818101C076
S1132A3080E3F1E08F1A91082D853E852F5F3F4F8B
S1132A402D873E87801691062CF0B70190E00E94F6
S1132A501518D9CFC814D90441F49A81963320F4B7
S1132A60953319F43C8534FF81E3B70190E04EC0FF
S1132A708A81813319F09C859F7E9C87B70190E001
S1132A800E941518111105C094FC18C085E690E049
S1132A9017C0B7018EE290E00E9415181E5F82E015
S1132AA001E0080FF301E80FF11D8081B70190E008
S1132AB00E941518802F0113F3CFE6CF85E490E030
S1132AC0B7010E941518D7FC06C0C114D10441F403
S1132AD0EC85E4FF05C0D194C194D1088DE201C016
S1132AE08BE2B70190E00E94151880E32AE0C21639
S1132AF0D1042CF08F5FFAE0CF1AD108F7CFB701D9
S1132B0090E00E941518B701C601C0960E941518DE
S1132B1054C1833631F0833779F0833509F056C0D8
S1132B2020C0560132E0A30EB11CF60180818983D6
S1132B3001E010E0630112C05601F2E0AF0EB11CD7
S1132B40F601C080D18096FE03C0612F70E002C000
S1132B506FEF7FEFC6010E940A188C01F92DFF77F1
S1132B6014C0560122E0A20EB11CF601C080D1802F
S1132B7096FE03C0612F70E002C06FEF7FEFC601C5
S1132B800E94FF178C01F92DF0689F2EF3FD1AC0E7
S1132B90852D90E008171907A8F4B70180E290E0AA
S1132BA00E9415185A94F4CFF60197FC859197FE6C
S1132BB081916F01B70190E00E94151851105A9449
S1132BC0015011090115110579F7F7C0843611F088
S1132BD0893661F5560197FE09C024E0A20EB11CA6
S1132BE0F60160817181828193810AC0F2E0AF0EA7
S1132BF0B11CF60160817181072E000C880B990BC2
S1132C00F92DFF769F2E97FF09C0909580957095BA
S1132C1061957F4F8F4F9F4FF0689F2E2AE030E0E1
S1132C20A3010E948818C82EC6183FC0092D8537F5
S1132C3021F40F7E2AE030E01DC0097F8F3691F029
S1132C4018F4883559F0C3C0803719F0883711F06B
S1132C50BEC0006104FF09C0046007C094FE08C040
S1132C60066006C028E030E005C020E130E002C084
S1132C7020E132E0560107FF09C084E0A80EB11C30
S1132C80F601608171818281938108C0F2E0AF0E08
S1132C90B11CF6016081718180E090E0A3010E9483
S1132CA08818C82EC6180F77902E96FE0BC0092DD3
S1132CB00E7FC11650F494FE0AC092FC08C0092D80
S1132CC00E7E05C0DC2C092D03C0DC2C01C0D12EE6
S1132CD004FF0DC0FE01EC0DF11D8081803311F461
S1132CE0097E09C002FF06C0D394D39404C0802F88
S1132CF0867809F0D39403FD11C000FF06C01C2D93
S1132D00D51480F4150D1D190DC0D51458F4B70150
S1132D1080E290E00E941518D394F7CFD51410F4F4
S1132D205D1801C0512C04FF10C0B70180E390E08E
S1132D300E94151802FF17C001FD03C088E790E048
S1132D4002C088E590E0B7010CC0802F867859F066
S1132D5001FF02C08BE201C080E207FD8DE2B701F2
S1132D6090E00E941518C11638F4B70180E390E092
S1132D700E9415181150F7CFCA94F301EC0DF11D00
S1132D808081B70190E00E941518C110F5CF15C0DD
S1132D90F4E0F51560F584E0581A93FE1FC00111A4
S1132DA027C02C8523FF2AC00EE712E0392D30718D
S1132DB0932EF8018491811124C0552009F4E4CCA8
S1132DC0B70180E290E00E9415185A94F6CFF701FB
S1132DD08681978126C08FEF9FEF23C0B70180E2E1
S1132DE090E00E9415185A945110F8CFD8CF512C66
S1132DF0B701802F90E00E941518D3CF02E812E0AB
S1132E00D5CF91108052B70190E00E9415180F5F42
S1132E101F4FCFCF23E0251510F483E0BDCF512CF5
S1132E20C0CF6096CDBFDEBFDF91CF911F910F91D0
S1132E30FF90EF90DF90CF90BF90AF909F908F90D6
S1132E407F906F905F904F903F902F90089528301F
S1132E5008F027E03327DA01990F311D87FD9160CF
S1132E6000966105710539F432602E5F3D9330E3BD
S1132E702A95E1F708959F3F30F080387105610588
S1132E8009F03C5F3C5F3D93913008F08068911DF0
S1132E90DF93CF931F930F93FF92EF92192F987F95
S1132EA09695E92F96959695E90FFF27E052FD4FE9
S1132EB099273327EE24FF24A701E70105900894FE
S1132EC0079428F4360FE71EF81E491F511D660F9C
S1132ED0771F881F991F0694A1F70590079428F47B
S1132EE0E70EF81E491F561FC11D770F881F991F33
S1132EF0661F0694A1F70590079428F4F80E491F5D
S1132F00561FC71FD11D880F991F661F771F069470
S1132F10A1F70590079420F4490F561FC71FD81F27
S1132F20990F661F771F881F0694A9F7849110953F
S1132F30177041F0D695C79557954795F794E79440
S1132F401A95C1F7E6E8F2E0689415901591359169
S1132F506591959105907FE27395E118F10A430B11
S1132F60560BC90BD009C0F7E10CF11E431F561FC5
S1132F70C91FD01D7EF4703311F48A95E6CFE8940E
S1132F80015030F0080F0AF40027021708F4202F2C
S1132F902395022F7A3328F079E37D932A95E9F774
S1132FA010C07D932A9589F6069497956795379571
S1132FB017951794E118F10A430B560BC90BD00966
S1132FC098F023957E9173957A3308F070E37C939F
S1132FD02013B8F77E9170617D9330F0839571E38F
S1132FE07D9370E32A95E1F71124EF90FF900F9100
S1132FF01F91CF91DF91992787FD90950895FC014A
S11330000590615070400110D8F7809590958E0F0F
S11330109F1F0895FC016150704001900110D8F782
S1133020809590958E0F9F1F08950F931F93CF93B4
S1133030DF93FB01238121FD03C08FEF9FEF2CC0A1
S113304022FF16C0468157812481358142175307D8
S113305044F4A081B1819D012F5F3F4F20833183D0
S11330608C93268137812F5F3F4F2683378314C08B
S11330708B01EC01FB010084F185E02D1995892B6E
S1133080E1F6D80116968D919C91179701961696A4
S11330908D939C931797CE01DF91CF911F910F9140
S11330A008950F931F93CF93DF93CDB7DEB72E9779
S11330B0CDBFDEBF0E891F89888D998D26E02C83B4
S11330C009831A8397FF02C080E090E801978D83FB
S11330D09E83AE01445E5F4F6A8D7B8DCE01019667
S11330E00E9487134D815E8157FD0AC02F81388568
S11330F0421753070CF49A01F801E20FF31F1082F0
S11331002E96CDBFDEBFDF91CF911F910F91089511
S1133110FA01AA27283051F1203181F1E8946F9304
S11331206E7F6E5F7F4F8F4F9F4FAF4FB1E03ED0AA
S1133130B4E03CD0670F781F891F9A1FA11D680F48
S1133140791F8A1F911DA11D6A0F711D811D911D7B
S1133150A11D20D009F468943F912AE0269F1124F0
S11331603019305D3193DEF6CF010895462F477054
S1133170405D4193B3E00FD0C9F7F6CF462F4F70AF
S1133180405D4A3318F0495D31FD4052419302D00D
S1133190A9F7EACFB4E0A6959795879577956795B3
S11331A0BA95C9F700976105710508959B01AC01B3
S11331B00A2E06945795479537952795BA95C9F7DA
S11331C0620F731F841F951FA01D0895F894FFCFED
S11331D0E17AD43E440B87C2094325643A2025751D
S11331E0202830782530347829095125753A20254E
S11331F0640D0A004572726F723A20636F756C64D5
S1133200206E6F74207265616420666C6F77207322
S1133210656E736F722050524F4D2E0009526573C4
S1133220657474696E6720466C6F772053656E739E
S11332306F722E2E2E20004572726F723A20636FC9
S1133240756C64206E6F7420726573657420666C8F
S11332506F772073656E736F722E00095265616417
S1133260696E6720466C6F772053656E736F7220AA
S113327050524F4D2E2E2E0D0A0009444F4E45211B
S11332800D0A004572726F723A20636F756C642088
S11332906E6F7420636F6E766572742070726573DE
S11332A07375726520696E20666C6F772073656E26
S11332B0736F722E004572726F723A20636F756C71
S11332C064206E6F7420636F6E766572742074650B
S11332D06D706572617475726520696E20666C6FBD
S11332E0772073656E736F722E004572726F723A37
S11332F020636F756C64206E6F7420726561642046
S113330041444320696E20666C6F772073656E7349
S11333106F722E000850234572726F7220737461AD
S11333207475733A2000525841434B0D0A004152C0
S1133330424C4F53540D0A004255534552520D0A04
S113334000554E4B4E4F574E0D0A007365703D2C81
S11333500D0A54696D65205B6D735D2C5072657345
S113336073757265205B7073695D2C54656D70654F
S1133370726174757265205B6F435D2C4F32205B04
S1133380636F756E74735D0D0A00252E33662C25EC
S11333902E34662C252E32662C25640D0A007365A6
S11333A0703D2C0D0A54696D65205B6D735D2C4F67
S11333B032205B255D0D0A00252E33662C252E3325
S11333C0660D0A004761696E3A20252E3366204F48
S11333D066667365743A20252E33660D0A002B2D1C
S11333E02D2D2D2D2D2D2D2D2D2D2D2D2D2D2D2D09
S11333F02D2D2D2D2D2D2D2D2D2D2D2D2D2D2B0D1B
S11334000A007C2048656C6C6F20576F726C6421D5
S113341020546869732069732055534152544530D0
S113342021207C0D0A00456E61626C696E6720493B
S11334306E74657272757074732E2E2E2000496E30
S1133440697469616C697A696E6720544343302EEC
S11334502E2E2000496E697469616C697A696E6701
S113346020545749452E2E2E2000496E69746961F7
S11334706C697A696E67204144432E2E2E200049E0
S11334806E697469616C697A696E6720466C6F77DE
S11334902053656E736F722E2E2E0D0A00496E69CD
S11334A07469616C697A696E672050756D702E2E2F
S11334B02E2000496E697469616C697A696E6720AF
S11334C056616C7665732E2E2E20008300FD00005D
S9030000FC
